:020000040000FA
:060000003BEF50F012007E
:0600080004EF10F01200ED
:060018000CEF10F01200D5
:062000003BEF50F012005E
:02200600FFFFDA
:0620080016EF10F01200BB
:02200E001200BE
:0620100004000000FFFFC8
:022016001602B0
:082018000FEF10F01200DACF07
:10202000E4FFE652E552E5CFDAFF1100DACFE4FF34
:10203000E2CFDAFFE9CFE4FFEACFE4FFF6CFE4FF37
:10204000F7CFE4FFF5CFE4FFF3CFE4FFF4CFE4FFF5
:10205000FACFE4FF00EE00F0140EE80403E3EECF45
:10206000E4FFFBD700EE14F0080EE80403E3EECF24
:10207000E4FFFBD7E652F2A40CD0A2EC4BF0100E1A
:102080000A01FF5D03E0180EFF5D1AE1FFEC1BF093
:1020900017D0A4AA03D069EC37F012D09EA003D0C9
:1020A000B7EC37F00DD0F250080B06E0F250010B00
:1020B00003E09AEC37F004D0A4A802D01CEC37F06F
:1020C000E55200EE1BF0080EE80403E3E5CFEDFF58
:1020D000FBD700EE13F0140EE80403E3E5CFEDFFA9
:1020E000FBD7E5CFFAFFE5CFF4FFE5CFF3FFE5CF70
:1020F000F5FFE5CFF7FFE5CFF6FFE5CFEAFFE5CF48
:08210000E9FFE5CFDAFF110051
:082108000300EBA00000AA0691
:1021100000002C000000CBA00000AA070000200057
:0E2120000000B9A00000DD0700001200000062
:02212E00A5EC1E
:102130001EF0E6520A01596B5A6B5B6B010E5C6F25
:102140005D6B5E6B5F6B606B616B626B636B646B33
:10215000656B666B676B686B696B6A6B6B6B7F6BD0
:10216000806B709FDF6A010EDF5C01E3C8D019EC61
:1021700020F0EF6A19EC20F0EE52EF6A19EC20F033
:10218000020EEDEC1EF0030EEDEC1EF0060EF4EC6C
:102190001EF0040EF4EC1EF00F0EF4EC1EF0080E10
:1021A000F4EC1EF00A0EF4EC1EF00C0EF4EC1EF033
:1021B0000E0E44EC1EF0DFCFEFFF19EC20F0110EF5
:1021C000F4EC1EF0130EF4EC1EF0150EEDEC1EF008
:1021D000160EEDEC1EF0170EEDEC1EF0180EEDECE9
:1021E0001EF0190EEDEC1EF01A0EEDEC1EF01B0E9B
:1021F000EDEC1EF01C0EEDEC1EF01D0EEDEC1EF0D5
:102200001E0EEDEC1EF01F0EEDEC1EF0200EEDECA0
:102210001EF0210EF4EC1EF0230EF4EC1EF0250E41
:10222000EDEC1EF0260EEDEC1EF0270EF4EC1EF089
:10223000290EF4EC1EF02B0EF4EC1EF0320EEDEC39
:102240001EF0330EEDEC1EF0340EEDEC1EF0350EEC
:10225000EDEC1EF0360EEDEC1EF0370EEDEC1EF040
:10226000380EEDEC1EF0390EEDEC1EF03A0EEDECF2
:102270001EF03B0EEDEC1EF03C0EEDEC1EF03D0EA4
:10228000EDEC1EF03E0EEDEC1EF03F0EEDEC1EF000
:10229000400EF4EC1EF0420EEDEC1EF0430E03EC8B
:1022A0001FF019EC20F0450EF4EC1EF0470EEDEC9B
:1022B0001EF0480EEDEC1EF0490EF4EC1EF04B0E35
:1022C000F4EC1EF04D0EF4EC1EF04F0EF4EC1EF08C
:1022D000510EF4EC1EF0530EEDEC1EF0540EEDEC2E
:1022E0001EF0550EEDEC1EF0560EEDEC1EF0570EE6
:1022F000EDEC1EF0E5EC1FF0EF6ADF2A34D70A019F
:10230000010E016FE552AAEF1EF00A016651671136
:1023100013E1010E666F676B686B696B6A6B33EC78
:102320004BF00A016B6F010E061905E1075155E1EB
:102330009484066B076B12006BCAE6FF3BEC4BF014
:10234000E55232084AE20A0169516A1104E1010EBC
:10235000696F6A6B1200300E6C6F020E6D6F685100
:1023600033E1010507E12151221104E16CCA6EFA43
:102370006DCA6FFA70AF03D070CA71FA1ED02151C6
:1023800022111AE171917193719571977199719BF5
:10239000719DA10E6E5D030E6F590CE2718F010EDF
:1023A000046F056B71817183718571977199719B50
:1023B000719D03D0719F01D0202B71517F0B026F53
:1023C0006ECA0FFA6FCA10FA682B010E685D03E33C
:1023D000686B666B676B696B6A6B1200A5EC1EF02D
:1023E000040EE126030EDB6ADF6A010EDF5C01E307
:1023F0009AD019EC20F0230E1BEC1FF04FE1ED50AA
:102400004DE119EC20F01C0E2AEC1FF0640826E2C6
:102410007BEC1EF019EC20F01C0E55EC20F019ECB2
:1024200020F01D0E6CEC1FF01E0E145C17E319EC6F
:1024300020F01D0E44EC1EF01E0EEF6EDF5082ECFD
:102440001FF00CE119EC20F0480E68EC20F0EF6E64
:1024500019EC20F01D0E44EC1EF0EF6ADF5082EC08
:102460001FF000080EE219EC20F0EF040AE10A0167
:102470005A515B1106E1DFCF59FA010E5A6F5B6BBF
:1024800009D00A015951DF5C40E1010E5A193DE1C2
:102490005B513BE119EC20F01D0E34D0DF5009E117
:1024A0000A01736B746B0A510B1101E1756B766B4A
:1024B00005D00A01776B786B796B7A6B19EC20F099
:1024C000EF0411E15A515B110EE1DFCF59FA010E11
:1024D0005A6F5B6B7F51801112E01A0EE66E730E1D
:1024E0005DEC1EF00CD05951DF5C09E1010E5A1968
:1024F00006E15B5104E119EC20F0020EEF6E19ECDD
:1025000020F01B0E44EC1EF0EF6A99EC1EF091ECEB
:1025100017F0E552E55299EC1EF076EC1BF0E5520F
:10252000E552DF2A62D7010E0A01E76E5919E8AEBB
:1025300002D0E73402D0E750595D02E389EF17F08B
:1025400048EC1EF0E9BEEA6814EC1FF0EF50030AF5
:1025500002E10DEF17F0010A01E1FBD2030A4FE09F
:10256000010A07E07F51801102E173EF17F06EEF6F
:1025700017F048EC1EF0E9BEEA6825EC1EF0230EC9
:102580001BEC1FF030E1ED502EE17F51801105E092
:10259000FE0EE66E720E5DEC1EF048EC1EF0E9BE1B
:1025A000EA68FFEC1FF0B9EC1FF0E9BEEA68B8EC8E
:1025B00020F0E9BEEA6825EC1EF01D0E44EC1EF08A
:1025C000190EC7EC1FF0E9BEEA6892EC20F0E9BEF4
:1025D000EA6839EC20F0E9BEEA6814EC1FF0EF2A53
:1025E0000A0187EF17F048EC1EF0E9BEEA6825EC17
:1025F0001EF0EF5002E089EF17F087EF17F048EC7C
:102600001EF0E9BEEA6825EC1EF0490E1BEC1FF037
:1026100004E1ED5002E1400E01D0000EE76E030E22
:10262000E7CFDBFF48EC1EF0E9BEEA6825EC1EF0C0
:10263000060E1BEC1FF00CE1ED500AE1B9EC1FF0A7
:10264000E9BEEA687EEC1FF0E552E7506CEF17F048
:1026500048EC1EF0E9BEEA6837EC1FF0EF50060ABE
:1026600001E124D2030A01E1DED1010A01E19FD197
:10267000070A01E17AD1010A01E131D1030A03E03D
:10268000010A89EF17F048EC1EF0E9BEEA6839EC60
:1026900020F0E9BEEA68C4EC20F0E9BEEA68C8ECC4
:1026A00020F0E9BEEA6858EC20F0E9BEEA68CAEC1E
:1026B0001FF0010EDB6A020EDB6A48EC1EF0E9BE79
:1026C000EA6868EC1FF0EF50020A01E1A5D0030AA6
:1026D00024E0010A01E0C0D048EC1EF0E9BEEA683F
:1026E0007AEC20F01AE1ED5018E148EC1EF0E9BE5A
:1026F000EA6868EC1FF0010EC7EC1FF0E9BEEA685B
:1027000092EC20F0E9BEEA680DEC20F0E9BEEA6840
:10271000F0EC1EF09C0EEF6E6BD048EC1EF0E9BEA4
:10272000EA6825EC1EF0080E1BEC1FF067E1ED5087
:1027300065E148EC1EF0E9BEEA6868EC1FF0020EA5
:10274000C7EC1FF0E9BEEA680DEC20F0E9BEEA68CC
:10275000F0EC1EF09A0ECCEC1EF048EC1EF0E9BE38
:10276000EA6825EC1EF00C0E2DEC1FF001E0A4D061
:1027700048EC1EF0E9BEEA6864EC1FF0EF2AEF5067
:10278000030801E399D07F51801105E0E40EE66E65
:10279000720E5DEC1EF048EC1EF0E9BEEA6825EC16
:1027A0001EF0290E15EC20F048EC1EF0E9BEEA6898
:1027B000F0EC1EF018EC1FF0E9BEEA683BEC1FF0ED
:1027C000E9BEEA6895EC20F0E9BEEA68CCEC20F0BE
:1027D000E9BEEA68BBEC20F0E9BEEA68D3EC20F081
:1027E000E9BEEA6825EC1EF03B0E44EC1EF0EF6AF1
:1027F000010EF36EDB6E020EDB6A5ED048EC1EF05B
:10280000E9BEEA6868EC1FF0020EEF6E0A510B1188
:1028100003E1595101E1756B48EC1EF0E9BEEA682D
:102820007AEC20F013E1ED5011E148EC1EF0E9BE26
:10283000EA6892EC20F0E9BEEA680DEC20F0E9BE0F
:10284000EA68F0EC1EF0B80ECCEC1EF048EC1EF07E
:10285000E9AE2FD0EA682DD048EC1EF0E9BEEA6858
:102860007AEC20F01AE1ED5018E148EC1EF0E9BED8
:10287000EA68CAEC1FF048EC1EF0E9BEEA6892EC88
:1028800020F0E9BEEA680DEC20F0E9BEEA68F0EC61
:102890001EF09C0ECCEC1EF008D07F51801105E09C
:1028A000DA0EE66E720E5DEC1EF048EC1EF0E9BE2C
:1028B000EA6868EC1FF0EF6AD950010FE96EDACFD1
:1028C000EAFFEE50ED1001E024D348EC1EF0E9BE23
:1028D000EA6814EC1FF0010EEF6E0A0118D348EC01
:1028E0001EF0E9BEEA6839EC20F0E9BEEA68C4EC03
:1028F00020F0E9BEEA68C8EC20F0E9BEEA680DEC19
:1029000020F0E9BEEA68F0EC1EF01C0EEF6E030E3C
:10291000DBCFE6FF48EC1EF0E9BEEA68E8EC1FF00A
:10292000E552E7109FEC20F0E9BEEA681FEC20F0CA
:1029300069EC1EF0030EDBCFE6FF48EC1EF0E9BEAB
:10294000EA68E8EC1FF00F0BE552E7109FEC20F06F
:10295000E9BEEA68B1EC1FF01EEC1FF0E9BEEA68C0
:1029600058EC20F0E9AEF1D09FD048EC1EF0E9BE63
:10297000EA6839EC20F0E9BEEA68C4EC20F0E9BE70
:10298000EA68C8EC20F0E9BEEA680DEC20F0E9BE88
:10299000EA68CEEC1FF0A0099FEC20F0E9BEEA68DF
:1029A000F0EC1EF01EEC1FF0E9AECFD07DD048EC6D
:1029B0001EF0E9BEEA6839EC20F0E9BEEA68C4EC32
:1029C00020F0E9BEEA68C8EC20F0E9BEEA680DEC48
:1029D00020F0E9BEEA68CEEC1FF020099FEC20F061
:1029E000E9BEEA68F0EC1EF01EEC1FF0E9BEEA68F2
:1029F00025EC1EF0190E34EC1FF0E9BEEA68F1EC8C
:102A000020F0E9BEEA6825EC1EF01A0E34EC1FF047
:102A1000E9BEEA683FEC20F0E9BEEA6858EC20F035
:102A2000E9AE93D041D048EC1EF0E9BEEA6839EC3B
:102A300020F0E9BEEA68C4EC20F0E9BEEA68C8EC20
:102A400020F0E9BEEA680DEC20F0E9BEEA68F0EC9F
:102A50001EF05C0EC7EC1FF0E9BEEA68B1EC1FF097
:102A6000EF5030099FEC20F0E9BEEA68F1EC20F06D
:102A7000E9BEEA6825EC1EF0170E34EC1FF0E9BE43
:102A8000EA683FEC20F0E9BEEA6825EC1EF0180E7B
:102A900034EC1FF0E9BEEA68A2EC20F0E9BEEA6877
:102AA00058EC20F0E9AE51D0EA684FD048EC1EF067
:102AB000E9BEEA6839EC20F0E9BEEA68C4EC20F02F
:102AC000E9BEEA68C8EC20F0E9BEEA680DEC20F047
:102AD000E9BEEA68F0EC1EF07C0EC7EC1FF0E9BE20
:102AE000EA68B1EC1FF0EF5010099FEC20F0E9BE4E
:102AF000EA68F1EC20F0E9BEEA6825EC1EF0170E5A
:102B000034EC1FF0E9BEEA683FEC20F0E9BEEA6869
:102B100025EC1EF0180E34EC1FF0E9BEEA68A2ECBA
:102B200020F0E9BEEA6825EC1EF0190E34EC1FF027
:102B3000E9BEEA68F0EC1EF0040EF4EC20F0E9BE09
:102B4000EA6858EC20F0E9BEEA6814EC1FF0EF2ABE
:102B5000E0D148EC1EF0E9BEEA68D3EC1FF016BEE7
:102B600017687FEC1EF0ADEC1AF0E552E552F3CF9A
:102B700014F0F4CF15F0010EF31801E0CAD115508E
:102B800001E0C7D148EC1EF0E9BEEA6825EC1EF072
:102B9000380E1CEC20F0AA0801E085D00A0159513A
:102BA00008E1736B746B0A510B1101E1756B766B65
:102BB00004D0776B786B796B7A6B48EC1EF0E9BECA
:102BC000EA6843EC20F01F0B1A0836E17F518011B0
:102BD00005E0C80EE66E720E5DEC1EF048EC1EF0CD
:102BE000E9BEEA6825EC1EF03B0E6CEC1FF0030E0C
:102BF000145C01E200D171EC1EF005E0BF0EE66E40
:102C0000720E5DEC1EF048EC1EF0E9BEEA6895EC31
:102C100020F0E9BEEA683BEC1FF0E9BEEA68CCECC4
:102C200020F0E9BEEA68BBEC20F0E9BEEA68D3EC2C
:102C300020F0E9AED2D035D07F51801105E0AF0E43
:102C4000E66E720E5DEC1EF048EC1EF0E9BEEA681E
:102C500025EC1EF03A0E6CEC1FF0030E145C01E242
:102C6000CAD071EC1EF005E0BF0EE66E720E5DEC90
:102C70001EF048EC1EF0E9BEEA6895EC20F0E9BED3
:102C8000EA683BEC1FF0E9BEEA68CCEC20F0E9BE54
:102C9000EA68BBEC20F0E9BEEA68D3EC20F0E9AECC
:102CA0009CD0EA689AD048EC1EF0E9BEEA6843EC92
:102CB00020F0B8081AE10A01595114E148EC1EF05D
:102CC000E9BEEA681FEC20F0EFCF73FA48EC1EF083
:102CD000E9BEEA68F0EC1EF0020E44EC1EF0EFCF05
:102CE00074FA3ED0776B786B3BD048EC1EF0E9BEAF
:102CF000EA6843EC20F09A0808E048EC1EF0E9BED0
:102D0000EA6843EC20F0BA080EE10A01595109E1E2
:102D100048EC1EF0E9BEEA681FEC20F0EFCF75FA30
:102D20001FD0796B1DD048EC1EF0E9BEEA6843EC79
:102D300020F09C0808E048EC1EF0E9BEEA6843EC8D
:102D400020F0BC080DE10A01595109E148EC1EF0E0
:102D5000E9BEEA681FEC20F0EFCF76FA01D07A6B7B
:102D600048EC1EF0E9BEEA6825EC1EF0130E1BECE1
:102D70001FF026E1ED5024E148EC1EF0E9BEEA68C0
:102D800043EC20F0A00BA0081BE148EC1EF0E9BECC
:102D9000EA68E1EC20F0E9BEEA68F0EC1EF0DAEC5B
:102DA0001FF0E9BEEA68E6EC20F090097E6F48EC7F
:102DB0001EF0E9BEEA6825EC1EF0130E15EC20F0BB
:102DC00048EC1EF0E9BEEA6843EC20F01F0B1A083D
:102DD00008E148EC1EF0E9BEEA6825EC1EF03B0E67
:102DE00007D048EC1EF0E9BEEA6825EC1EF03A0E6A
:102DF00044EC1EF0EF6AB9EC1FF0E9BEEA68B8ECEB
:102E000020F0E9BEEA6814EC1FF0010EC7EC1FF0D9
:102E1000E9BEEA68FFEC1FF079D048EC1EF0E9BE8D
:102E2000EA68D3EC1FF016BE17687FEC1EF01BDBC0
:102E3000E552E552F4CF15F0010EF3186AE1155092
:102E400068E1010E146E156A48EC1EF0E9BEEA68EE
:102E500025EC1EF0110E44EC1EF014C0EEFF15C060
:102E6000EDFF1450151024E048EC1EF0E9BEEA68AE
:102E700043EC20F0200B20081BE148EC1EF0E9BEDB
:102E8000EA68E1EC20F0E9BEEA68F0EC1EF0DAEC6A
:102E90001FF0E9BEEA68E6EC20F080097E6F48EC9E
:102EA0001EF0E9BEEA6825EC1EF0110E15EC20F0CC
:102EB00048EC1EF0E9BEEA68FFEC1FF00A015A6B0D
:102EC0005B6BB9EC1FF0E9BEEA68B8EC20F0E9BE34
:102ED000EA6814EC1FF0010EEF6E1BD08C0EE66E4C
:102EE000720E5DEC1EF048EC1EF0E9BEEA6895EC4F
:102EF00020F0E9BEEA683BEC1FF0E9BEEA68CCECE2
:102F000020F0E9BEEA6814EC1FF0EF6A0A015A6B80
:102F10005B6B040EE15C02E2E16AE552E16EAAEF4E
:102F20001EF0A5EC1EF00A015C0501E081D23DEC2B
:102F30001EF01F0E1CEC20F0050A01E1CFD1010AA2
:102F400001E1DFD0070A01E1CCD0010A01E1B7D0ED
:102F5000030A01E18FD0010A0DE08DEC1FF0EF5064
:102F600001E0C8D131EC1FF0250E44EC1EF0E55213
:102F7000E75050D13DEC1EF0210EEB6A220EB1EC71
:102F800020F0040E1BEC1FF06FE1ED506DE13DEC05
:102F90001EF0040EEB6A050EB1EC20F01B0E11ECD6
:102FA0001FF0020ED7EC20F0010EE76E1418E8AE09
:102FB00002D0143403D0E750D880145451E24FECBF
:102FC0001FF044E13DEC1EF0200E6CEC1FF0280ECB
:102FD000145C01E246D23DEC1EF0EF5002082FE1F6
:102FE0007F51801102E009EC1FF071EC1EF00BE044
:102FF00093EC1FF014BE1568BCEC1FF07F0EE66E5C
:10300000720EAEEC1EF03DEC1EF0DBEC20F003EC9B
:103010001FF057EC1FF0290EEB6A2A0EEB6A98ECB2
:103020001FF02DEC20F0EF6A3DEC1EF0080EEB6A6D
:10303000090EB1EC20F00C0EEB6A0D0E60D03DECE9
:103040001EF0010E90EC1FF0200ED9D16EEC20F096
:10305000020E1CEC20F0E66E3DEC1EF0030EE2D1F9
:103060006EEC20F0030ECDD03DEC1EF00A0EEB6AA4
:103070000B0ED2D13DEC1EF0060E2DEC1FF001E040
:10308000F0D18DEC1FF0EF5001E0EBD17F518011BA
:1030900002E009EC1FF071EC1EF005E0730EE66E25
:1030A000720E5DEC1EF0ECEC1FF03DEC1EF0270EF6
:1030B0005BEC20F0A6EC20F055EC20F015D146ECAE
:1030C00020F0640801E3CDD14AEC20F0260E6CEC30
:1030D0001FF0020E145C01E2C4D13DEC1EF0430E61
:1030E000FAD046EC20F0140801E3BBD198EC1FF0B5
:1030F000DBEC20F05BEC20F0230EEB6A240EEB6A95
:10310000F3D03DEC1EF0510E1BEC1FF057E1ED50DB
:1031100055E13DEC1EF0E4EC1EF04AEC20F003EC2F
:1031200020F0C50814E171EC1EF002E009EC1FF07C
:1031300071EC1EF005E0600EE66E720E5DEC1EF0A6
:103140003DEC1EF0260E11EC1FF00C0E16D03DECDF
:103150001EF003EC20F09C0816E171EC1EF002E07A
:1031600009EC1FF071EC1EF005E04B0EE66E720EDE
:103170005DEC1EF03DEC1EF0080E5BEC20F0290E1D
:10318000EB6A2A0E49D171EC1EF002E009EC1FF047
:1031900071EC1EF007E0E0EC1FF0360EE66E720EEA
:1031A000AEEC1EF0F2EC1FF090EC1FF0260E11ECCE
:1031B0001FF02DEC20F0010EEF6E1CD046EC20F03D
:1031C000640801E34ED1ECEC20F014081DE271EC30
:1031D0001EF002E009EC1FF071EC1EF005E0210E7C
:1031E000E66E720E5DEC1EF05DEC1FF0260E44ECF8
:1031F0001EF0EF6A3DEC1EF0EF6A3DEC1EF0ABEC0A
:1032000020F044EC1EF02CD186EC1FF0130808E1EE
:10321000F2EC1FF090EC1FF02DEC20F0010E06D127
:1032200086EC1FF0120801E01CD13DEC1EF00C0EE4
:103230001BEC1FF001E1ED500AE03DEC1EF0080E22
:103240001BEC1FF001E00DD1ED5001E00AD13DEC87
:103250001EF00C0E1BEC1FF00FE1ED500DE171ECB8
:103260001EF002E009EC1FF071EC1EF005E0110EFB
:10327000E66E720ED2EC1EF03DEC1EF0080E1BEC5A
:103280001FF015E1ED5013E13DEC1EF00A0E03ECCA
:103290001FF071EC1EF002E009EC1FF071EC1EF063
:1032A0000AE0FF0EE66E710ED2EC1EF004D03DEC8B
:1032B0001EF0C7EC1EF071EC1EF002E009EC1FF0EE
:1032C00071EC1EF005E0F00EE66E710E5DEC1EF086
:1032D0003DEC1EF0230E03EC1FF006D03DEC1EF07B
:1032E000EF50030801E0BDD03DEC1EF01F0E3CEC9A
:1032F00020F0B7D03DEC1EF0060E2DEC1FF001E0E3
:103300008DD046EC20F00A0801E3ABD0ECEC20F0C5
:10331000280801E378D03DEC1EF0010E90EC1FF080
:103320000F0E44EC1EF0EECF14F0EFCF15F0A10E0F
:10333000145C030E15580FE371EC1EF002E009EC6B
:103340001FF071EC1EF02AE0E60EE66E710EE66EDE
:103350000DEC41F021D04FEC1FF008E13DEC1EF0E8
:103360002B0E1BEC1FF02AE1ED5028E171EC1EF052
:1033700002E009EC1FF071EC1EF010E093EC1FF07E
:1033800014BE1568BCEC1FF0DA0EE66E710EE66E28
:103390001BEC41F0E552E552E552E5523DEC1EF0E2
:1033A000EF6A57EC1FF02B0EEB6A2C0EEB6A5DEC0C
:1033B0001FF0ABEC20F0D0EC20F01ED03DEC1EF066
:1033C000290E1BEC1FF018E1ED5016E13DEC1EF04C
:1033D000290EEB6A2A0EB1EC20F0020E90EC1FF0E1
:1033E0002DEC20F0EF6A3DEC1EF0210E5BEC20F09E
:1033F0001F0E44EC1EF0EF063DEC1EF0260E44ECD2
:103400001EF0280E13D086EC1FF01E082AE23DECB9
:103410001EF0210EEB6A220EEB6A23D03DEC1EF06B
:10342000A6EC20F044EC1EF0E552E750EF6E19D008
:103430008DEC1FF0EF5006E13DEC1EF02DEC20F07E
:10344000010EEF6E3DEC1EF01F0E11EC1FF0200E72
:1034500011EC1FF0210EEB6A220EEB6A57EC1FF005
:10346000EF6AAAEF1EF09EEC1FF0320E1CEC20F06B
:10347000020A38E0030A0FE0010A04E071EC1EF0D2
:1034800062E05DD031EC1FF0350E06EC1FF0320E1D
:103490003CEC20F05AD03DEC1EF0350E2AEC1FF02B
:1034A000640853E24EEC20F050E1E7DB330E11EC00
:1034B0001FF07EEC20F0330E26EC20F06FEC1FF0B6
:1034C000340E06EC1FF0400E5BEC20F0320E3CECAC
:1034D00020F071EC1EF039E079EC1FF0D10EE66EB1
:1034E000710E24D04EEC20F030E1C7DB340E1CEC22
:1034F00020F0EF06146E000EE76E1418E8AE02D04E
:10350000143403D0E750D880145413E2B6DB7EECB9
:1035100020F0330E26EC20F0400E03EC1FF0E1DB30
:1035200014E079EC1FF0CC0EE66E710EAEEC1EF0DE
:103530000CD0F7EC1FF0010EDE6EDD6A06D0B60E81
:10354000E66E710EBADBF7EC1FF0BCEC1EF002E287
:10355000E16AE552E16EAAEF1EF09EEC1FF0360E16
:103560001CEC20F0040A52E0070A44E0010A38E0AB
:10357000030A0CE0010A04E0B4DB01E1AFD0AAD0F9
:1035800031EC1FF0390E55EC20F03DD082EC20F0EC
:10359000640801E3A5D04EEC20F001E0A1D06DDB82
:1035A000370E11EC1FF07EEC20F0370E26EC20F0E9
:1035B0006FEC1FF0380E06EC1FF0400E03EC1FF00E
:1035C000FBEC1FF086EC20F001E08AD08ADB01E101
:1035D00087D079EC1FF0AD0EE66E710EEDDB80D07A
:1035E0004EEC20F001E07CD08AEC20F0EDDB45DBF6
:1035F000570E07D082EC20F0280872E28AEC20F007
:103600003E0E42DBEF6AFBEC1FF06AD036DB510E58
:103610001BEC1FF048E1ED5046E12FDBD5DB2DDB45
:103620003E0E11EC1FF003EC20F0E66E21EC1FF0D3
:10363000370EC1EC1FF04DDB86EC20F008E151DBCA
:1036400006E0E0EC1FF0A60EE66E710EB5DB15DBB2
:10365000380E1ADBEF06EFCF14F0E76E1418E8AE61
:1036600002D0143403D0E750D880145439E3B4ECBA
:1036700020F0010EDE6EDD6A86EC20F00EE131DB1B
:1036800005E00D0EE66EF0EC40F0E5522ADB05E0B9
:103690000A0EE66EF0EC40F0E552EFDA450EEB6A0A
:1036A000460EEB6A1DD082EC20F0640819E28AEC29
:1036B00020F03E0E3CEC20F0EF50070811E2DDDA7E
:1036C000360EAFDB380EE0DAAA0EEF6E010EDE6EBC
:1036D000DD6A06D0900EE66E710EEFDAB4EC20F0E3
:1036E0004BDB02E2E16AE552E16E34D32EDBFAEC09
:1036F00020F01CEC20F0060A6BE0030A5CE0010AF3
:1037000055E0070A4EE0010A1EE0030A16E0010A2E
:1037100003E0E7DA6BE066D0B0DA400E8CDB6EE1F6
:10372000ED506CE1CEDBA9DA3D0E68EC20F090ECB8
:103730001FF03E0ED0EC20F043D031EC20F00A0810
:103740005DE2BFDB5BD099DA3E0E3CEC20F0EF503F
:10375000080824E3ECEC1FF084DB3F0E57DB3D0E42
:1037600093DAEFCF15F089DA420E1CEC20F0151435
:10377000146E83DA3D0E1CEC20F0145C02E1A1DB38
:1037800007D0030E146EFAEC20F07EDA1450EF2608
:1037900074DA3D0E79DAEF9EEF4630D061EC20F01E
:1037A0002DD031EC20F00A0829E209D031EC20F0CC
:1037B0001E0824E211D031EC20F01E081FE281DB4C
:1037C0005CDA430E20DB4DDB3F0E55EC20F016D0CB
:1037D00031EC20F00A0812E2FAEC20F068EC20F05C
:1037E000EF6E06D0770EE66E710E67DA61EC20F0B0
:1037F00044DA430E68EC20F0EE6EED6AABD2010EB7
:103800000A01E76E5919E8AE02D0E73402D0E7505A
:10381000595D01E3ECD059CA72FA00DBEE52EF04B5
:1038200038E0725101E0E3D0010E401901E141514D
:1038300005E0010E27190BE1285109E19494435149
:10384000E8B08B84E8A08B94140E566F1200948419
:103850008250040B01E0010E586FE0DA400EFDDAF1
:1038600001E0C5D0DBDA4D0EF8DA01E09DD098EC2E
:1038700020F008082EE26BEC20F03CEC20F0CEDAD1
:10388000560E2ADB1E0E145C07E35EEC20F0EF04FC
:1038900060E0BEEC20F03FD0E8DBEFCF14F0140E78
:1038A000145C01E280D0BEEC20F0EF6E5EEC20F004
:1038B000EF0403E1DADB1E0E2ED0C1EC20F004E6AB
:1038C000C80E145C000E15586EE3F7EC20F0C80E1D
:1038D00022D0F4DBEF5021E1A1DA4D0E94DA9EDA2A
:1038E0004B0EA3DB9BDA530EF3DBEF6E97DA540E2D
:1038F000D0EC20F0F0DBECDBEF6E98EC20F053E145
:103900008DDA4F0E92DB8ADA510E8FDB8EEC20F0CF
:10391000EF6AABDB010EEF6E120098EC20F00008AE
:1039200033E27CDA4B0E99DA3EE178DA4B0E6BDA51
:10393000D2DB82DB3C0810E2C1EC20F004E6E60EAC
:10394000145C000E155808E269DA4F0EC1DBEE6E0A
:10395000ED6A8BDBEF6A1200E1DBEF90EF425EDA9B
:10396000530ED7EC20F05ADA540E66DB145C02E2F8
:10397000D5DBEF8EDDDBEF2A146E080E145C13E34B
:103980004DDA510E03EF1FF0A6DB76DBEFD904E62C
:10399000C80E145C000E15582AE367DBEF6AF7ECDB
:1039A00020F0C80EEF6E120096DB96DA250E145C3E
:1039B0000AE284DBEF5003E131DA530E02D02EDA53
:1039C000540E3CEF20F07ADBEF500EE1DADB04E638
:1039D000FA0E145C000E15580AE3D0DBEF6EF7EC1C
:1039E00020F0FA0EEF6E120019DA4D0E1EDB1200F7
:1039F0000A015D5187DA63E155DBEF0460E15A515A
:103A00005B115DE15E51090A4AE0010A38E00F0AE4
:103A100053E0010A2EE0030A25E0010A19E0070A33
:103A200013E0010A0DE0030A03E0010A48E046D072
:103A3000DED9010EEF6E36DB150E26D9630E3BD0B4
:103A4000D6D9020EEF6E25D0D2D9030E19DA34D0B2
:103A5000CED9040E15DA79DA25DB1A0E15D963CA28
:103A6000EFFF2AD0C4D9050E0BDA75DA090E5E6FA6
:103A70001200BDD9060E04DA6EDA67DA1DD0B7D9A6
:103A8000020EEF6E0FDB490EFFD864CAEEFF65CA67
:103A9000EDFF08DB160EF8D85FCAEFFF0DD0F8D89F
:103AA000E9BEEA68E4D9030E72DAE9BEEA68CDD865
:103AB000170EEAD81D0EEF6E5E6B12005E6B1200E1
:103AC00044D9E652010E9AD9EF50D00F0A015D6F2A
:103AD000010E5D5D09E37F51801104E0620EE66E28
:103AE000710EEBD80A015D6B5DCADFFF5E6BAADA6F
:103AF000310803E1010E5E6FA6D0A4DA320807E1B7
:103B0000020E5E6F040EC8D8F3CF5FFA9CD09ADA2B
:103B1000330807E1030E5E6F040EBED8F3CF60FAE0
:103B200092D090DA34080BE1040E5E6F060EDCDAF8
:103B3000F3CF62FA0A0EB0D8F3CF63FA84D082DAF8
:103B4000350808E1050E5E6F060E58D9A0D9F3CFEF
:103B500061FA79D077DA36080AE1060E5E6FC4DAC8
:103B6000F3CF61FA0A0E98D8F3CF62FA6CD06ADA12
:103B7000370804E15EDA2B0E46D965D063DA3808DF
:103B80003DE1080E5E6FD7DA50080EE17F518011DB
:103B900004E0550EE66E710E90D8010E0A01646FB6
:103BA000656B400E5F6F4FD0C6DA42080CE17F5163
:103BB000801104E0480EE66E710E7FD80A01646B36
:103BC000656B5F6B40D07F51801104E03A0EE66E6A
:103BD000710EE8D886D80FE02CDA490E3ED904E100
:103BE000350E146E710E03D0300E146E710E156EFC
:103BF00014C0E6FF62D80A015E6B25D023DA3908CB
:103C000022E199DA4E080BE17F51801104E0200E89
:103C1000E66E710E52D80A017F6B806B14D08BDA7E
:103C200044080AE1010E7F6F806BE85080110BE0C1
:103C30000F0EE66E710E06D07F51801104E0040E67
:103C4000E66E710E3AD8E55285D0590EEA02F3CFEE
:103C5000EAFFE902F3CFE9FFF450EA26000EE92675
:103C60000A0EEA221200590DF3CFE9FFF4CFEAFF62
:103C7000000EE9260A0EEA221200FD0EDBCFE9FF54
:103C8000FE0EDBCFEAFF1200E926000EEA22120048
:103C900059CAE9FFEA6A1200E76EFD0EDBCF14F0A5
:103CA000FE0EDBCF15F0E7501426000E152264D966
:103CB00094EC49F0E552E5521200E66E0DEC41F04D
:103CC000E552E5521200EF50E66E3BEC4BF0E55248
:103CD0001200E552E750EF6E1200010EEE6EED6A33
:103CE00012000A017F5180111200EF50E66E21ECA4
:103CF00041F0E552120033EC4BF0E66E1200590E23
:103D00001702F3CF17F01602F3CF16F0F450172670
:103D1000000E16260A0E172216C0E6FF17C0E6FF91
:103D20001200EF50EF2A1424E96E000E1520EA6EFF
:103D30001200DF50590DF3CF14F0F4CF15F0000E40
:103D400014260A0E1522BCEF1FF0D9CFE6FFE1CFF3
:103D5000D9FF1200E552E7CFD9FF1200E66E1BEC47
:103D600041F0E552E552E552E5521200EF50146E73
:103D7000156AD89015501200DECF14F0DDCF15F083
:103D800014C0F3FF15C0F4FF020EE15C12000A0E2E
:103D9000EB6A0B0EEB6A1200EF6E010EDB6E020E89
:103DA000DB6A1200E66E0AEC41F0E552E5521200C1
:103DB000EF2AEFCF14F01200E66E15EC41F0E55259
:103DC000E552E552E5521200510EEB6A520EEB6AD3
:103DD0001200EF50E66EE66A1200E2D919EF20F009
:103DE00034DF2D0E44EF1EF020D919EF20F05AD900
:103DF000450E1BD957D9480E44EF1EF0E76E3DDF44
:103E0000E75044EF1EF040DF6DEF1EF04ED93DEF5E
:103E10001EF033DF0E0E38DF75EF1EF0725133EFF8
:103E20001EF0BED93DEF1EF010DF1B0E44EF1EF05A
:103E3000EF6A48EF1EF04CD9EE1812004ADF48EF47
:103E40001EF01BDF2D0E20DFE9CF14F0EACF15F0B6
:103E50003DEF1EF019DF63EF1EF016DFEE50ED10A0
:103E6000120049DF3DEF1EF0E7D89FEF20F0EDDEB6
:103E7000480E44EF1EF0E9DE230ED7D848EF1EF0BF
:103E8000EF6E10D9170E00DF60CAEFFF1200EF6A65
:103E9000040E02DFF3CF60FA070E4CEF1EF0EDDEEA
:103EA000030E85D9EADE020EC7D8145C1200E5DEE7
:103EB000230EEB6A240EB1EF20F0DFDE68DF3DEF6A
:103EC0001EF098D93CEF20F0C0DE1E0E44EF1EF02D
:103ED000BCDE150E44EF1EF0D7DED8EF1EF0420E0A
:103EE000ABD8600BE00BE838E840010FE66E3DEF21
:103EF0001EF0C3DE420EC8DEE9EF1EF0A6DE1C0E89
:103F000044EF1EF0B0DE480E1CEF20F0B6DE260EA9
:103F10001CEF20F0010E44EF1EF0AFDEEE52120057
:103F2000EF6E3DEF1EF0A9DE020E41D9156A1200B8
:103F3000A4DE270EEB6A280EB1EF20F006DF020E9A
:103F4000E126DE6ADD6A3DEF1EF0ACD8190E9CDE7C
:103F500062CAEFFF1200A6D8180E96DE61CAEFFF04
:103F6000120073DE470E44EF1EF0550E8DDEB6EFE5
:103F70001EF0C1DE48EF1EF014C0E6FF15C0E6FFDC
:103F8000120082DE91EF1EF0560E1CEF20F0EF6E55
:103F900048EF1EF05ADE450E15EF20F056DE170EE4
:103FA0004BD81F0B120051DE020EEF6E59CA16F0ED
:103FB000176A1200020E68DEEFCF7CFA48EF1EF09F
:103FC0005CDE570E61DEE9EF1EF0580E44EF1EF086
:103FD0003CDE160E1CEF20F050DE430EEB6A440E62
:103FE000EB6A12004ADE560E4FDE0A0E120045DE64
:103FF000320ED0EF20F041DE360E3CEF20F025DE11
:10400000030EEF6E1200570E1CEF20F0560E3CDE32
:10401000140E1200EF2A48EF1EF017DE290EF3DE11
:1040200048EF1EF031DE18EF1FF02EDEEE6AED6A6B
:104030001200DF5033EF1EF027DEEF501200D0DE0B
:104040008AEF1FF0020EDADEEF5012009ADFEF5017
:10405000E66E13DE420E06EF1FF0060ED4DE8DEF85
:104060001FF00BDE3F0E2AEF1FF0D8DE560E44EF96
:104070001EF0FDDE18EF1FF007DEEF2A1200B0DEA3
:10408000020EF4EF20F0ACDEEF501200F6DD250E4C
:104090002AEF1FF0E6DE250E06EF1FF0EEDD400EE4
:1040A0002DEF1FF05D5133EF1EF0EEDD69EF1EF0D6
:1040B000BBDE0AEF20F0A7DE3DEF1EF0AFDEE5EF3E
:1040C0001FF098D8AEDE400EEB6A410EEB6A12008C
:1040D000DBDD010E1200A2DE550E1200CEDDEF6A0E
:1040E000ECDE200E11EF1FF089DEEF6A090E86DE8E
:1040F00047EF1FF0AADD0C0E1BEF1FF0430E83DE0F
:1041000021EF1FF0BADD390E2AEF1FF0B6DD450EA4
:104110002DEF1FF0A6DE390E06EF1FF07FDE570EE3
:1041200044EF1EF0D1DE18EF1FF08FDD18EF1FF007
:1041300075DEC4EF1FF0030E61DEEF501200E66E75
:1041400048EF1EF04DDE030EF4EF20F0260E28D8C7
:1041500088DE250E1200200E97DD140EE1DE1F0E04
:104160001200EB6A3DEF1EF088DD360ED0EF20F036
:10417000C5DE1EEF1FF058DE18EF1FF04FDE06EF12
:1041800020F04CDEB5EF1FF060DD320E12EF20F0B4
:104190005CDD360E12EF20F058DD1F0E12EF20F01E
:1041A00073DDEF6A120051DD3A0E12EF20F06CDD84
:1041B000EFCF14F01200200E34DE260E32DE210E78
:1041C00012003DDFEFCF7BFA48EF1EF05CDF1F0BE4
:1041D0000A017D6F592912005DDF260E4DDFEF5079
:1041E00012002DDF1EEF1FF04FDD1EEF1FF073DFFB
:0A41F00044EF1EF042DD3C0E120009
:0641FA0007EC28F0A0987C
:10420000636A626A0F01266BE6EC27F00F01A5ECEA
:1042100027F0DF6ADF50146E156A280E145C000E5A
:10422000155810E2DF50040DF3CFE9FFF4CFEAFF99
:10423000000EE9260D0EEA22EE6AEE6AEE6AEE6ADA
:10424000DF2AE8D7658C0F01386B6598659C62A6FC
:1042500007D062960A01BC6BC16BC26BC36BF7D708
:104260000A01010EE36FE46FE56BE66BC96BDF6A71
:104270000A0EDF5C11E2EA6ADF340AEC28F0EA2277
:10428000EE6AED6AEA6ADF3411EC28F0EA22EE6A9F
:10429000ED6A5EEC27F0ECD70A01080EA36F0D0E55
:1042A000A46F0F01160E266F0D01A00E026F0D0EEA
:1042B000036F080E016F840E006F0A01826B816B21
:1042C0002D0EE16FE55230EF27F007EC28F00A01E0
:1042D00081510CE1656A0F01366BA5EC27F065B6DC
:1042E00002D06586FCD70A01010E816F81050AE1C3
:1042F00065BA08D0626A0F01366B368136890A01C9
:10430000020E816F6250040B06E00F013651040B60
:1043100002E06294DDDB65B249D06250010B09E036
:104320000F013651010B05E068DF0A01040E816FB1
:1043300062906250100B06E00F013651100B02E044
:10434000BCDB629862AC10D00F0136AD05D0ACEC8E
:1043500027F0730E15EC27F0629C0A01E15101E091
:10436000E107E15101E1F6D86250200B05E00F01B1
:104370003651200B01E090DB6250020B0CE00F0184
:104380003651020B08E0ACEC27F0E6687F0EE66ED3
:1043900018EC28F0636A040E0A01E76E8119E8AE92
:1043A00002D0E73402D0E750815D02E2A1982FD01D
:1043B0000F0136A72BD0DF6A040EDF5C27E262A66E
:1043C00025D064CFCAFA0A01CA51780BE842E84204
:1043D000E842CB6F6296CAB504D0CB511FEC28F0EF
:1043E00003D0CB5124EC28F0EA22EF70CB5102E14C
:1043F0007CDB0AD0000EE66EE66ACA0EE66E0A0E96
:10440000E66E720E15EC27F0DF2AD6D7A198E5529A
:1044100030EF27F0D8EC27F0FD0EDBA403D0E66ADE
:1044200095EC27F0FD0EDBA204D0010EE66E95ECB4
:1044300027F0FE0EDB50156A260F146E0F0E8FEC60
:1044400027F021EC27F0FD0EDBCFEFFF020EE15C41
:1044500002E2E16AE552E16E30EF27F0D8EC27F096
:10446000FD0EDB5003E010EC27F002D04FEC27F0FC
:104470007BEC27F0D9CFE9FFDACFEAFFEE50ED1061
:1044800003E1F36AF46A28D021EC27F033EC28F03A
:10449000FB0EDBCFEEFFFC0EDBCFEDFF21EC27F0B8
:1044A000EE52FA0EDBCFEFFF400E29EC28F0880E1B
:1044B00038EC28F0FD0EDB5003E010EC27F002D0C2
:1044C0004FEC27F0EA22EF74DECF14F0DDCF15F0C9
:1044D00014C0F3FF15C0F4FF020EE15C02E2E16AD2
:1044E000E552E16E30EF27F0D8EC27F0FE0EDB50FE
:1044F00003E1EFEC27F009D054EC27F0C6EC27F0ED
:1045000054EC27F0010FC6EC27F0020EE15C02E24A
:10451000E16AE552E16E30EF27F02BEC27F065A859
:1045200017D000EC28F0400EEE16EE6AEE6AEE6A46
:1045300000EC28F0EE7C10EC27F0EA22EF74400E3D
:10454000146E00EC28F01450EF1600EC28F0EF7C0D
:1045500030EF27F00A01E35128E1010EE36FE45147
:1045600024E1010EE46F020EB85D09E126EC27F0AC
:10457000EE52EF6A26EC27F0C80EEF6E1200B80577
:1045800014E1CC6B3CEC27F0EE52080EEF6E3CECE5
:1045900027F0D2EC27F03CEC27F0840EEF6E010EF2
:1045A000CC6F0CEC27F0800EEF6E12000A01E56B69
:1045B000E66B020EB85D07E12DEC28F041EC27F028
:1045C000C1EC27F013D0BD510D01A65D0A01BE510B
:1045D0000D01A75904E2A6CDBDFAA7CDBEFA6BD84E
:1045E00026EC27F041EC27F026EC27F0C80EEF6E02
:1045F0001200D8EC27F0000EDE6E0D0EDD6E54ECCE
:1046000027F0040DF4CF15F0D9CFE9FFDACFEAFF98
:10461000F350EE261550ED2221EC27F0EF9EFD0E13
:10462000DB5003E14FEC27F002D010EC27F0EA2238
:10463000DECFEEFFDDCFEDFF21EC27F0EF9C21EC8C
:1046400027F0040EE926000EEA22EF8C020EE15C50
:1046500002E2E16AE552E16E30EF27F065980A0167
:10466000BCBF0DD0C1AF09D0020EB86FE65101E159
:104670009DDF0A01E46BE36B1200EFEF27F00D0101
:10468000A0AF0DD00A01010EB86FE55101E18EDF38
:104690000A01E46BE36BE2510DE1AAEF22F00A019B
:1046A000020EB86FB9DB840EEF6EE46BE36BE25180
:1046B00001E150DF120007EC28F0080EDF6E0A015E
:1046C000BD5D000EBE590AE2BDCADFFFB75102E16F
:1046D000010E03D0B70502E1020EB76FDF50156A75
:1046E000E850BD5DBD6F1550BE59BE6FAFDBEE52D9
:1046F000DFCFEFFFA80EC66F0D0EC76FBCB10DD098
:10470000DF5017E0BACAF6FFBBCAF7FFBA2B000E9C
:10471000BB230800F550E2DBF3D7DF500AE0BACA4A
:10472000E9FFBBCAEAFFBA2B000EBB23EF50D6DB72
:10473000F4D7E55295D3D8EC27F09EDBEE52EFCFBD
:10474000DFFFDFCF14F014500A01C25D000EC35921
:1047500002E2C2CADFFFDF50146E156AE850C25D84
:10476000C26F1550C359C36F010EDB6ADF50F36E81
:10477000010EDBCFF4FFF350F45C16E2010EDB50C8
:10478000EA6AA80FE96E0D0EEA22EF50E66EBFCA84
:10479000E9FFC0CAEAFFBF2B000EC023E552E75075
:1047A000EF6E010EDB2AE2D7000ED880C255000E54
:1047B000C3550EE22DEC28F064DB5EDBEF50400BBE
:1047C00003E1DFDBC80E02D0DCDB880EEF6E12D017
:1047D00023DB840EEF6EC451C51107E005D0C5CAB6
:1047E000FAFF0A01C451F96EFADF0A01C19FE251D2
:1047F00001E1B0DE020EE15C02E2E16AE552E16E47
:104800002FD307EC28F00A01BC8FE0DBA00EE66E88
:10481000E66AE66A000EE66E0D0E39DB658CDF6A2D
:104820000A0EDF5C02E24ADBFBD7080EE66EE66AA0
:10483000E66A830EE66E0A0E2ADB659C0A01080E04
:10484000A36F0D0EA46F000E8B6F0D0E8C6F8BCAB5
:104850008DFA8E6FA2CD82FA825102E1100E0BD03A
:10486000010EE66EE66A820EE66E0A0EE66E010E36
:10487000DCDA0A01200E816FE552F2D2800E0D01C2
:10488000A05D01E0CDD00A01C00EBC6F0D01A351A7
:10489000030A65E0010A39E0030A01E0BFD0EAEC4F
:1048A0004FF0400A26E0700A1FE0180A18E0100ACC
:1048B00011E0180A0AE0380A03E0080A1FE11ED0D6
:1048C0000A016E0EBA6F620E1DD00A01800EBA6F19
:1048D000620E18D00A01B60EBA6F620E13D00A012A
:1048E000920EBA6F620E0ED00A01A40EBA6F620E5B
:1048F00009D00A01C80EBA6F620E04D00A015C0E1C
:10490000BA6F620EBB6F120E83D0EAEC4FF0400A12
:1049100012E0700A10E0180A0EE0100A0CE0180A03
:1049200005E0380A0DE0080A0BE10AD082DA390EF8
:10493000F626690E09D07DDA330EF626690E04D00C
:1049400078DA2D0EF626690EF8DA020E0A010BDB74
:10495000F5CFBDFA030E07DBF5CFBEFA1200EAEC85
:104960004FF0400A10E0700A0EE0180A0CE0100A3E
:104970000AE0180A05E0380A09E0080A07E106D04B
:104980000A01080E05D00A01050E02D00A01070E21
:10499000B96FE8500D01A25D3EE2EAEC4FF0400A2B
:1049A00026E0700A1FE0180A18E0100A11E0180A41
:1049B0000AE0380A03E0080A1FE11ED03ADA4D0E79
:1049C000F626690E1DD035DA5B0EF626690E18D074
:1049D00030DA7F0EF626690E13D02BDA6B0EF62630
:1049E000690E0ED026DA750EF626690E09D021DA88
:1049F000890EF626690E04D01CDA3F0EF626690EE3
:104A00009CDABACAF6FFBBCAF7FF0800F5500A01E4
:104A1000BD6FBE6B12000A01BC6B12000A01BC6BB9
:104A20001200C6DA0D01A86BA96BA0511F0B020A78
:104A300011E0030A0CE0010A1EE10A01BC8F0D011E
:104A4000A8810A01C80517E10D01A88314D00A0145
:104A5000BC8F11D00A01BC8F0D01A4BF02D0C6DAF1
:104A600001D0C9DA48DACFDA06E0EBD9EF50040B0F
:104A700002E0010EA86F0A01BCAF07D0A80EBA6F02
:104A80000D0EBB6FBC81020EBD6F020EE15C02E237
:104A9000E16AE552E16EE4D10F0126A10CD0ECD918
:104AA000EF50800807E1D2D9EF50840803E1E4D940
:104AB0008C0EEF6E2691629A12000F013685629875
:104AC00065820A01010EC96F1CDA750E15EF27F019
:104AD0000A01C96B16DA740EA8D965920F013695D2
:104AE00062A402D06294FCD7120091DA0A012D0E62
:104AF000E16FFD0ECA1539E17E0ECA15E8407F0B45
:104B0000040DF3CF8BFAF4CF8CFA000E8B270D0E29
:104B10008C238BCA8DFA8CCA8EFA8D75ADD9EF5065
:104B20003C0BE842E8420D081EE1DF6A080EDF5C3C
:104B300016E2A2D9020EE926000ECAD9EF50E66E9F
:104B4000DF50EA6AA00FE96E0D0EEA22E552E75047
:104B5000EF6E92D988DAEE2AEF22DF2AE7D78CD9D6
:104B600021DA0AD807D023D805D0FD0ECA150408CB
:104B700001E12CD8E55274D10A01B76BE26BE56B09
:104B8000E66BCC6BB86B62D9EF9EA3755FD9EF9ED5
:104B9000A375F7D9EF9EBC6BBD6BBE6BC16BC26BCF
:104BA000C36B51D8AED9030E40D92EEF23F0020EBD
:104BB0000A01B85D02E19BEF23F0B86BCC5104E130
:104BC0002BD98C0EEF6E1200CC6B120020DA3ED97E
:104BD000EF50400B01E0010EDF6E0A01A375080ED5
:104BE000815D0BE1A2CD38FF0F01385103E00A01CE
:104BF000100E02D00A01040E816FB80513E126D908
:104C000040D959DD020E0A01B75D03E11FD9840EB8
:104C100007D0DF5003E11AD9C80E02D017D9880E89
:104C2000EF6E0FD0C1AF0CD0C451C51107E005D055
:104C3000C5CAFAFF0A01C451F96EFADF0A01C19F21
:104C4000B86BE5520DD10D01A051600BE842E8426E
:104C5000E842E842E842000901E01200A1510C0AD2
:104C600045E00B0A3FE00C0A31E0010A22E00B0AA2
:104C70001EE0020A1CE0030A18E0080A10E0010A1C
:104C80000CE00F0A08E0030A01E012000A01BC8FE1
:104C9000080E816F12003EEF24F001EF24F00A01AC
:104CA000820EBA6F0A0EBB6F0CD011EF25F077EFB2
:104CB00026F0A4510A01BA6FBB6B830EBA270A0E05
:104CC000BB23BC81010EBD6FBC8F12000A01BC8FDB
:104CD0000D01A451EA6A830FE96E0A0EEA22A2CD01
:104CE000EFFF12000ED9020E15EF27F01200B3D815
:104CF000050EE1260D01A20510E1A0511F0B0009D0
:104D00000CE10A01BC8F030E0D01A15D04E10A0153
:104D1000010EC86F02D00A01C86B0D01A25101E05B
:104D200074D0A0511F0B020870E1A4510F0B0009B1
:104D30006CE0A4510F0B090868E3200E0A01815DA5
:104D400064E1BC8F0D01A4BF04D050D9D4D8DFD802
:104D500003D051D9D0D8DFD8EA22020EEFCFDBFF43
:104D600009D9010B03E1000EDF9401D0DF84A4BF59
:104D700002D03CD901D03FD9EA22DECFEEFFDDCF11
:104D8000EDFF030EA15D0CE13ED907E0A4BF02D008
:104D9000BED801D0C0D8EA22EF82840E69D935D0BE
:104DA000DF7431D906E04DD8EF9E4BD8EF8C04D993
:104DB00002D047D8EF8CDF74DDD8020B02E123D993
:104DC0000DE00D01A4BF02D0A2D801D0A4D8EA22E0
:104DD000EF923B0E146E3DD9EFD802D03B0E39D97D
:104DE0000D01A4510F0B156A260F146E0F0E15221C
:104DF000030E14C0DBFF040E15C0DBFF030EDBCF78
:104E0000E9FF040EDBCFEAFFEF90050EE15C02E262
:104E1000E16AE552E16E24D020D9C4D8C1EF27F071
:104E2000FE0EEA6ADB340AEF28F0E66EE66A18EF57
:104E300028F00D01A251F66EF76AD890F636F736D3
:104E40001200DECFE9FFDDCFEAFF1200A3CAE9FFBF
:104E5000A4CAEAFF1200D9CFE6FFE1CFD9FF1200C2
:104E6000E552E7CFD9FF1200A4510F0BE96EEA6AB1
:104E7000D890E936EA3612008BCAE9FF8CCAEAFFFD
:104E80001200F1D8A80EEE6E0D0EED6E1200E66E59
:104E900011EC50F0146E050EE15E14501200FE0E7F
:104EA000EA6ADB3411EF28F0FD0EDB50E824166EC1
:104EB000FE0EDB50040DF35016241200DF50C4D850
:104EC000EA22EF6ADF50BBD8EA22EF6ADF2A12003B
:104ED000EA22EE50EFCFEAFFE96E1200E66EC6CA94
:104EE000E9FFC7CAEAFFC62B000EC723E552E75009
:104EF000EF6EDF061200EA22EECFDEFFEDCFDDFF20
:104F00001200000EE66EE66AE66EE66A1200A45132
:104F10000F0B1FEF28F0A4510F0B24EF28F01522E0
:104F200014C0DEFF15C0DDFF1200FE0EDBCFE6FF72
:104F3000F9EC22F0E552E5521200F7220900F5CF14
:104F4000BAFA0A00F5CFBBFA1200160E396F9F0E9F
:104F5000376F7B0E366F1200010EE66EE66A000EAA
:104F6000E66EE66A1200F76ABA25F66EBB51F722C2
:104F700008001200D950020FE96EDACFEAFFEF50B5
:104F800012008DCAE9FF8ECAEAFF1200040DF3CFAA
:104F900014F0F4CF15F0000E14260D0EC0DF840EB1
:104FA00038EF28F060D8A00EEE6E0D0EED6E1200F8
:104FB00052DF020EE1261200020EE66EE66ADECF36
:104FC000E6FFDDCFE6FF050E15EF27F0090EE66ED2
:104FD000E66AE66A270EE66E0F0E47EF27F01CDF43
:104FE0008C0EEF6E33DF840EEF6E12003DDF8F0EFE
:104FF000E9260A0E120038DFA30EE9260A0E120077
:105000000FDF68EF27F01DDFEF50800B120023DF6A
:10501000E6521200FE0BEA36E96EA30EE9260A0EEE
:105020001200FE0BEA36E96E8F0EE9260A0E120018
:10503000C4EC3CF0146E060EE15E14501200EA6AF5
:10504000D70FE96E0A0E1200EA6ACD0FE96E0A0E5A
:105050001200F7DEE850EF16120093DFEE52080E52
:10506000EF6EC1EF27F0020EE926000EEA221200D1
:08507000E8DEE850EF12120027
:085078000901216B226B2D6B75
:105080002E6B9E6B9F6B256B266B2B6B9B6B9C6BB0
:105090009D6B620E276FEA0E286FA06BA16BA26B4F
:1050A000A36B296B2A6B010E206F2C6B040EE66E2E
:1050B000E66AE66A000EE66E090E71EC2CF0080E48
:1050C000E66E090E71EC2CF00C0EE66E090E71EC1A
:1050D0002CF0100EE66E090E71EC2CF0140EE66E3C
:1050E000090E71EC2CF0040EE66E090E71EC2CF03A
:1050F000180EE66E090EF5DB1C0EE66E090E02ECCC
:105100002DF08A948A96120003D83DDBF1EF28F047
:105110000901A051A1110BE1010EA06FA16B9F6BC2
:10512000A26BA36B33EC4BF009019E6F12009EC97A
:10513000E6FF3BEC4BF0E552320852E20901A25186
:10514000A31109E1010EA26FA36B9FC9E6FF3FEC1B
:105150004FF0E55212004DEC4FF0B2EC2CF040E174
:1051600015503EE15DEC4FF0F3CFA6F9F4CFA7F96F
:1051700009019F51020A1FE0030A10E0010A27E11A
:105180009C51FCEC2CF07F0EE926090EC2EC2CF0B1
:105190009C2B070E9C5D1BE19C6B19D09B51FCEC7A
:1051A0002CF0710EE926090EEDDB9B2B070E9B5DA3
:1051B0000EE19B6B0CD09D51FCEC2CF08D0EE92682
:1051C000090EE0DB9D2B070E9D5D01E19D6B9F2B82
:1051D000030E9F5D03E39F6BA06BA16BA26BA36BA0
:1051E00012001BEC2DF0D20EF35C070EF45801E216
:1051F000120082A010D029C9E6FF2AC9E6FF51D8C3
:10520000E552E552AFDB05E1155003E18B908B9C35
:105210001200D6EF2CF01BEC2DF00901F350275DA6
:10522000F45028590EE229C9E6FF2AC9E6FF0AD838
:10523000E552E55297DB04E1155002E18B8C8B803F
:10524000B5DB120086DBEDDBB50EF35C030EF45824
:1052500003E20901010E1ED0E9DB720ED880F3547F
:10526000050EF45403E20901020E14D082DB15E1AD
:10527000ED5013E10901760ED88004550C0E05554A
:1052800002E2030E07D0620ED8801C55000E1D5599
:1052900004E2040E2C6FF36A02D0010EF36EF46A7E
:1052A0005DD357DB020EE126BCDBB00EF35C030ED0
:1052B000F45804E20901010E2C6F44D0B7DB770EDD
:1052C000D880F354050EF45403E20901020E38D0DD
:1052D0007F0EE66E090EE66EC8D9E552E552F3CFB1
:1052E000DEFFF4CFDDFFDECF14F0DDCF15F0380E9A
:1052F000145C010E155803E20901050E21D0D9CF27
:10530000E9FFDACFEAFF900ED880EE540F0EED548D
:1053100003E20901060E14D02CDB16E1ED5014E176
:105320000901790ED88004550C0E055502E2030ED2
:1053300007D0620ED8801C55000E1D5505E2040EE4
:105340002C6F010EF36E01D0F36AF46A020EE15C79
:1053500002E2E16AE552E16E01D3FBDA100EE66E7D
:10536000E66AE66A610EE66E090E4CDBFD0EDB5066
:10537000230A09E0030A04E0010A02E0030A06E145
:1053800006010F0E05D006010C0E02D00601020E1A
:10539000AC6FFD0EDBCFABF6FE0EDBCFE6FFAA0E49
:1053A000E66E060EE66E2E0EE66E090EE66E000E38
:1053B000E66EE66A610EE66E090EF0DACFD2C9DA61
:1053C000030EE12609012E5102E1F36A66D0020EB6
:1053D0002E5D07E1C60EE66E750EE66E0DEC41F031
:1053E00058D0020EABC6DBFFDB5023081FE1A5DA65
:1053F0003A0EE66EF0EC40F0E552DF6A0C0EDF5C30
:105400000EE2DF50EA6A610FE96E090EEA22EF5000
:10541000E66EBD0EE66E750E14DBDF2AEFD7BA0E10
:10542000E66E750EE66E0AEC41F033D0020EDB50EC
:10543000200808E0020EDB50210804E0020EDB50D9
:1054400022081AE1010E61C9DBFFDB28EA6A610F5D
:10545000E96E090EEA22EF6A70DAB70EE66E750E93
:10546000E66E0AEC41F0E552E552620EE66E090E78
:10547000E66E07EC41F00DD061C9A4F962C9A5F947
:105480005CDAA4C9E6FFA5C9E6FFB20EE66E750EAA
:10549000E3DAE552E552010EF36EF46A030EE15CC5
:1054A00002E2E16AE552E16E59D27F0EE66E090E24
:1054B00023DA83DAAB0EE66E750E9ADAB7DA7DDAA6
:1054C000A40EE66E750E94DAACDA77DA9D0EE66E0F
:1054D000750E8EDA00C9E6FF01C9E6FF960EE66E8C
:1054E000750E0EDA02C9E6FF03C9E6FFF5D904C955
:1054F000E6FF05C9E6FF8D0EE66E750E01DA06C9F8
:10550000E6FF07C9E6FFE8D90CC9E6FF0DC9E6FFCB
:10551000860EE66E750EF4D90EC9E6FF0FC9E6FFDA
:10552000DBD908C9E6FF09C9E6FF7F0EE66E750EF6
:10553000E7D90AC9E6FF0BC9E6FFCED91CC9E6FFC9
:105540001DC9E6FF780EE66E750EDAD91EC9E6FFB4
:105550001FC9E6FFC1D910C9E6FF11C9E6FF710EE8
:10556000E66E750ECDD912C9E6FF13C9E6FFB4D9B0
:1055700014C9E6FF15C9E6FF6A0EE66E750EC0D9BE
:1055800016C9E6FF17C9E6FFA7D918C9E6FF19C96A
:10559000E6FF630EE66E750EB3D91AC9E6FF1BC9A6
:1055A000E6FF9AD90901010E291906E12A5104E101
:1055B000550EE66E750E03D04A0EE66E750EE8D9EE
:1055C00082AC05D03D0EE66E750EC8EF2CF02F0EA6
:1055D000E66E750EDDD909012C51060A3BE0030A7F
:1055E00031E0010A28E0070A1EE0010A14E0030A7C
:1055F0000AE0010A01E01200230EE66E750EE66E67
:105600000DEC41F02FD0B50EE66E030EE66E120ED5
:10561000E66E750E26D0720EE66E050EE66E010E73
:10562000E66E750E1ED0760EE66E0C0EE66EF00E71
:10563000E66E740E16D0620EE66EE66ADF0EE66E59
:10564000740E0FD0380EE66E010EE66ECE0EE66ECC
:10565000740E07D0900EE66E0F0EE66EBD0EE66E6F
:10566000740EFAD9E552E552120073D913DA0A0E14
:10567000B3D905E212DA0A0EEBD90A0EB0D90ADA6A
:10568000060EAAD905E209DA060EE2D9060EA7D956
:10569000020EE8D904E2020EE9D9020EEBD9040E9B
:1056A000EDD904E2040EEED9040EF0D9F3D9020EBE
:1056B00093D905E2F2D9020ECBD9020E90D9060E8B
:1056C00081D90A0E89D908E2060E8CD90A0E7AD938
:1056D000060E8BD90A0E83D9040EC4D904E2040E37
:1056E000C5D9040EC7D9040E6DD9060E75D908E2C6
:1056F000040E78D9060E66D9040E77D9060E6FD936
:10570000060EB0D904E2060EB1D9060EB3D9080EC2
:1057100059D90A0E61D908E2080E64D90A0E52D985
:10572000080E63D90A0E5BD9020EA8D904E2020E54
:10573000A9D9020EABD9020E45D9060E4DD908E201
:10574000020E50D9060E3ED9020E4FD9060E47D989
:10575000060E94D904E2060E95D9060E97D9060EC8
:1057600031D914C0F3FF15C0F4FFF8D0F2D82DD909
:10577000EFCFA4F9010E99D8EFCFA5F9A4C9F3FF93
:10578000A5C9F4FFEBD009012051020A28E0030A61
:1057900001E0120021C9E6FF22C9E6FFD6D8C40EF7
:1057A000F35C090EF45801E212002BC9E6FFB20EB9
:1057B000E66E060EE66E2D0EE66E090EE66E000E25
:1057C000E66EE66A2F0EE66E090EE8D80901020EB3
:1057D000206F36EC4BF0F3CF21F9F4CF22F9090119
:1057E0002D5101E11200020E2D5D50E0010E296FD6
:1057F0002A6B420E276F1F0E286F2F0EE66E090EC2
:105800005BD8000EE926090E92D8310EE66E090E1D
:1058100053D8040EE926090E8AD8330EE66E090E17
:105820004BD80C0EE926090E82D8350EE66E090E0D
:1058300043D8080EE926090E7AD8370EE66E090E0F
:105840003BD81C0EE926090E72D8390EE66E090EF9
:1058500033D8100EE926090E6AD83B0EE66E090E03
:105860002BD8140EE926090E62D83D0EE66E090EFD
:10587000E66E7CDFE552E552F4CF15F009012B51BD
:10588000BBD8180EE926090E52D806D0296B2A6B10
:10589000620E276FEA0E286F2B5102E1010E01D034
:1058A000000E2B6F010E206F1200E76E8ED8E750AE
:1058B000E926000EEA221200E66E58DFABD8090195
:1058C0002B51FCEF2CF0EECF16F0EFCF17F0145069
:1058D000165C155017581200940EE66E750EF8EF10
:1058E0002CF090D8040EE66EE66AE66A1200EECF5F
:1058F00014F0EFCF15F01200E66EB7DE0AEF2DF0D0
:10590000E66E15EC41F0E552E552E552E552120023
:10591000EECF23F9EDCF24F9120014C0EEFF15C02D
:10592000EDFF120023C9EEFF24C9EDFF1200EA22A9
:10593000F3CFEEFF15C0EDFF1200020EDBCFE6FF46
:10594000BF0EE66E750E21EF2DF04DEC4BF00AEF19
:105950002DF0D9CFE6FFE1CFD9FF1200E552E7CF16
:10596000D9FF1200F3CF14F0F4CF15F0010EF318A5
:105970001200D950FD0FE96EFF0EDA20EA6E010E1B
:10598000EE181200EA22A6C9EEFFA7C9EDFF120029
:10599000E66E0DEC41F0E552E5521200E66E70EC59
:1059A0003DF0146E090EE15E1450120036EC4BF01F
:1059B000F3CF25F9F4CF26F91200F3CFE6FFF4CFA9
:1059C000E6FF120072DF77EF2CF0FD0EDBCFE9FF70
:1059D000FE0EDBCFEAFF120068DF63EF2CF065DF1D
:1059E00092EF2CF062DF88EF2CF05FDF8DEF2CF070
:1059F00033D8E552E5521200E96EEA6AD890E936EA
:105A0000EA361200E66E11EC50F0146E050EE15EFF
:105A100014501200E552E552F3CF14F0F4CF15F014
:105A200012008D0EE66E090E7CEF2CF0710EE66E04
:105A3000090E7CEF2CF025C9E6FF26C9E6FFA5EF8D
:105A40002CF0E66E18EC41F0E552E552E5521200FA
:105A5000B9DFBBDF8DEF2CF0E66E1BEC41F0E552B9
:105A6000E5521200AFDF0C0EECEF2CF0BBDF0C0E9A
:105A7000E2EF2CF0BADF0C0EEFEF2CF0A3DF080EF4
:105A8000ECEF2CF0AFDF080EE2EF2CF0AEDF080EEB
:105A9000EFEF2CF09ADF77EF2CF097DF88EF2CF008
:105AA0000D01F06BF16BF26BF36BF46B0E01AE6BEF
:105AB000AF6B0D01F56BF66BF76BF86BF96BFA6B6F
:105AC0001200A3DB030EE126DF6A0D01F751F81186
:105AD0004BE1F951FA112BE139DB420810E19ADB75
:105AE00041080DE19ADB54080AE19ADB08E1B00EA7
:105AF000E66E740E47DB010E0D01F96FFA6B26DBC3
:105B0000420801E0CED186DB440801E0CAD185DB42
:105B1000410801E0C6D184DB01E0C3D1A40EE66EEA
:105B2000740E41DB010E0D01F76FF86BBAD10EDB7D
:105B300045080EE16FDB58080BE16FDB490808E10F
:105B40006FDB06E1970EE66E740E1CDB0D016BD069
:105B5000FDDA420801E0A5D15DDB30081FE05ADB29
:105B6000310801E09ED11AD0F1DA410804E131DBBD
:105B700060EC1DF07FD1EADA420815E14BDB410809
:105B800006E14BDB540803E155EC2AF08AD142DBF5
:105B9000300804E03FDB310801E083D11ADB89D90A
:105BA000E552E552FED0D2DA430810E133DB440877
:105BB00001E077D132DB430801E073D1030EC3DA91
:105BC000330801E06ED1A0EC36F06BD1BFDA4408A7
:105BD00015E120DB540801E064D11FDB520801E02D
:105BE00060D1040EB0DA300802E18A965AD1040E70
:105BF000AADA310801E055D18A8653D1A7DA4508DF
:105C000015E108DB580801E04CD107DB490801E049
:105C100048D106DB01E045D18C0EE66E740EC3DA86
:105C20000D01F76BF86BF96BFA6B3BD18FDA50080B
:105C30000CE1F0DA520801E034D1EFDA530801E068
:105C400030D1EEDA01E02DD12BD180DA520801E01B
:105C500094D0E0DA500812E18050E66E880EE66ECD
:105C6000740E77DA8150E66E840EE66E740E71DA89
:105C70008250E66E800EE66E740EF8D0CBDA4408E1
:105C800012E19250E66E7C0EE66E740E62DA93506C
:105C9000E66E780EE66E740E5CDA9450E66E740E64
:105CA000E66E740EE3D0B6DA4C0812E18950E66E67
:105CB000700EE66E740E4DDA8A50E66E6C0EE66E6D
:105CC000740E47DA8B50E66E680EE66E740ECED018
:105CD000A1DA4D080CE141DADE52F3CFDEFFF4CF5A
:105CE000DDFFDD527DDA610EE66E740E23D092DAAE
:105CF00053082DE1030EE76EFD0EDBCF16F0FE0E0E
:105D0000DBCF17F0E7501626000E172216C0E6FF6D
:105D100017C0E6FF94EC49F06ADAF3500F0E151243
:105D2000010EF3CFDBFF020E15C0DBFF59DA540E74
:105D3000E66E740E49DA010EDBCFE9FF020EDBCF0F
:105D4000EAFFEF50E66E5B0EE66E740E8FD065DAFA
:105D5000530802E0000E01D0010EE66E010E64DA77
:105D6000E552E750EF6E01E19CD0040EECD930080B
:105D700002E18B9096D08B8094D0E8D94D0813E146
:105D800049DA440801E08DD0E8D9F3CFF1FDF4CF32
:105D9000F2FDFF0E0D01F1170F0EF217F36B010E5E
:105DA000F06FDF6E7ED0D2D9500820E133DA4F0891
:105DB0000BE133DA520808E133DA06E1040EC3D905
:105DC000530802E19DD86DD025DA50086AE125DA42
:105DD000450867E1030EB7D94E0863E1050EB3D954
:105DE000300802E18A985DD08A885BD0AFD9530829
:105DF00044E110DA490855E110DA520852E14CEC5E
:105E00004CF0C6D9450EE66E740EC8D951EC4CF074
:105E1000BFD9360EE66E740EC1D956EC4CF0B8D927
:105E2000270EE66E740EBAD98250040B01E0010E03
:105E3000E66E1A0EE66E740E8CD98250020B01E0EB
:105E4000010EE66E0D0EE66E740EFED9100B01E02B
:105E5000010EE66E000EE66E740E7BD98250400B8A
:105E600001E0010EE66EF30EE66E730EE66E1EECBA
:105E700041F0E552E552E55214D068D9560802E1E6
:105E800092D80FD063D958080CE1C4D9420809E16F
:105E9000C4D94C0806E10E01EF0EAE6FBE0EAF6F17
:105EA0003DD9DF50146E030EE15C02E2E16AE55277
:105EB000A2D1ABD9020EE126ADD9D00FDF6E4DD9FC
:105EC000010EF3CFDBFFDB5023080EE3010EDBCF27
:105ED000E6FFDFCFE6FFADEC29F0E552E5520D011C
:105EE000050EF06F010E05D0E80EE66E730E5BD95D
:105EF000000E146E020EE15C02E2E16AE5527BD113
:105F00008050040B01E0010EE66EE20EE66E730EA9
:105F10009BD9040B01E0010EE66EDC0EE66E730EFB
:105F200018D98050200B01E0010EE66ED60EE66E09
:105F3000730E8AD9080B01E0010EE66ED00EE66EF4
:105F4000730E07D98250010BE66ECA0EE66E730E11
:105F500000D98250020B01E0010EE66EC40EE66E1F
:105F6000730E72D9100B01E0010EE66EBB0EE66EE9
:105F7000730EEFD88050020B01E0010EE66EB20EF8
:105F8000E66E730E61D9020B01E0010EE66EAC0EF7
:105F9000E66E730EDED88050010BE66EA60EE66E3E
:105FA000730EA9EF30F0A30EE66E730EEBD8160E4B
:105FB000E66E850EE66E730EE66E2CEC41F0E55251
:105FC000E552E552820EE66E730EDCD8730EE66E75
:105FD000730EE9D8EAEC4FF0400A24E0780A1EE09C
:105FE000080A18E0180A12E0080A0CE0380A06E06D
:105FF000080A1CE16F0EE66E730E1BD06B0EE66E88
:10600000730E17D0660EE66E730E13D05F0EE66E3B
:10601000730E0FD0580EE66E730E0BD04E0EE66E5A
:10602000730E07D0490EE66E730E03D0410EE66E76
:10603000730EA8D8380EE66E730EC2EF30F0E5D8B6
:10604000E6520D01F051050A56E0010A3EE0060A4B
:1060500034E0030A02E0010A5CD0F1CDE6FFF2CDA4
:10606000E6FF310EE66E730EAFD8A3D82E0EE66EA5
:10607000730EC7D8DF6A0F0EDF5C07E29AD82C0ECA
:10608000E66E730EBED8DF2AF6D7000EE66EE66A1D
:10609000F40EE66E0D0EE66EA30EE66E730EE66E61
:1060A000020EE66E90EC3FF0146E070EE15E1450A7
:1060B0000D01020EF06FF32B2CD0F4512AE0040EE8
:1060C000F35D22E0010EF06F24D0F5CDE6FFF6CDB2
:1060D000E6FF4DEC4BF08BD8E80ED880F354030E5E
:1060E000F45417E20D01F06B0E01EF0EAE6FBE0E11
:1060F000AF6F14D80ED0DFEC29F0A1D8010EF31841
:1061000008E1155006E10D01F06B260EE66E730EE8
:1061100039D8E552E552E7CFD9FF12006592656A9A
:10612000FA0EE66E89EC4BF0E552FF00000000002D
:10613000120036EC4BF0F3CFF5FDF4CFF6FD0D0178
:10614000040EF06F120070D8EF50120080D8EF509C
:106150001200E66E1EEC41F06ED0030EE76EFD0EEF
:10616000DBCF14F0FE0EDBCF15F0E7501426000E47
:10617000152214C0E6FF15C0E6FF94EC49F0E55285
:10618000E5521200E66E0AEC41F0E552E5521200CB
:1061900056D8F3CFE6FFF4CFE6FF1200E66E1BEC15
:1061A00041F0E55248D0E66E0DEC41F0E552E55283
:1061B00012000D01F1CDE9FFF2CDEAFFF12B000E47
:1061C000F223EF50E66E1200E66E15EC41F0E55258
:1061D00032D0FD0EDBCFE6FFFE0EDBCFE6FF120076
:1061E000010EDBCFE6FF020EDBCFE6FF1200E55229
:1061F000E5521FEF31F0E16E1450E552E7CFD9FFC1
:106200001200E66E18EC41F016D0D9CFE6FFE1CFD0
:10621000D9FF1200010EA3EF30F0020EA3EF30F011
:10622000030E91DF54081200E76E11D8E750E926FB
:10623000000EEA221200E552E552E5521200F3CFB9
:1062400014F0F4CF15F0120084DF81501200FD0E1F
:0C625000DBCFE9FFFE0EDBCFEAFF1200FF
:04625C001201000229
:10626000EF020108542A100401000102000112018A
:106270000002EF020108542A180401000102000183
:1062800012010002EF020108542A20040100010259
:10629000000112010002EF020108542A2804010043
:1062A0000102000112010002EF020108542A300429
:1062B00001000102000112010002EF020108542A4C
:1062C000380401000102000112010002EF0201087E
:1062D000542A40040100010200010902EF000701F5
:1062E00002C0000904000002030000060921110198
:1062F0000001221C0007058103400001070501037E
:10630000400001080B01020202010309040100011F
:1063100002020103052400200104240202052406D0
:1063200001020524010002070582030A0002090494
:106330000200020A000003070503024000000705EF
:106340008302400000080B03020202010409040357
:1063500000010202010405240020010424020205B8
:10636000240603040524010004070584030A00022F
:1063700009040400020A00000407050502400000A9
:1063800007058502400000080B050202020105090D
:106390000405000102020105052400200104240275
:1063A0000205240605060524010006070586030AE2
:1063B000000109040600020A000005070507024063
:1063C00000000705870240000009023101090102AF
:1063D000C0000904000002030000060921110100A9
:1063E00001221C000705810340000107050103404D
:1063F0000001080B0102020201030904010001026D
:1064000002010305240020010424020205240601E0
:10641000020524010002070582030A0002090402A2
:1064200000020A000003070503024000000705837D
:1064300002400000080B03020202010409040300E9
:1064400001020201040524002001042402020524A3
:106450000603040524010004070584030A00020959
:10646000040400020A0000040705050240000007BA
:10647000058502400000080B05020202010509041F
:106480000500010202010505240020010424020286
:1064900005240605060524010006070586030A00F3
:1064A0000109040600020A00000507050702400072
:1064B0000007058702400000080B070202020107DF
:1064C0000904070001020201070524002001042439
:1064D00002020524060708052401000807058803B1
:1064E0000A000109040800020A0000070705090262
:1064F0004000000705890240000009026B0003010B
:1065000002C0000904000002030000040921110177
:106510000001221C0007058103400001070501035B
:10652000400001080B0102020201030904010001FD
:1065300002020103052400200104240202052406AE
:1065400001020524010002070582030A0002090472
:106550000200020A000003070503024000000705CD
:10656000830240000004030904460342006C0061FA
:106570000063006B0020004400690061006D006F43
:10658000006E006400200041006400760061006E2F
:10659000006300650064002000540065006300682B
:1065A000006E006F006C006F00670079002E001E07
:1065B0000342004400410054002000310035003205
:1065C0000020004300410042004C0045001A0342F5
:1065D000004400410054002D0031003500320020FD
:1065E0000043004D0044001A03420044004100549F
:1065F000002D0031003500320020004B00440055D2
:10660000001C0342004400410054002D00310035BD
:10661000003200200044004100540041001A0342AF
:10662000004400410054002D0031003500320020AC
:10663000004800490044001E034200440041005449
:1066400000200031003400380020004300410042A7
:10665000004C0045001A0342004400410054002D44
:1066600000310034003800200043004D0044001A7F
:106670000342004400410054002D00310034003832
:106680000020004B00440055001C03420044004120
:106690000054002D00310034003800200044004137
:1066A00000540041001A0342004400410054002DF0
:1066B0000031003400380020004800490044002028
:1066C00003420044004100540020003100310037F3
:1066D00000470020004300410042004C0045001CE0
:1066E0000342004400410054002D003100310037C6
:1066F000004700200043004D0044001C03420044BA
:1067000000410054002D00310031003700470020C7
:10671000004B00440055001E034200440041005459
:10672000002D0031003100370047002000440041B7
:1067300000540041001C0342004400410054002D5D
:106740000031003100370047002000480049004474
:10675000001C0342004400410054002D0031003170
:10676000003700470020004700500053002C034230
:1067700000440041005400200032005800550053EE
:106780000042002F005300410044004C0020004311
:1067900000410042004C00450028034200440041F3
:1067A0000054002D00320058005500530042002FC5
:1067B000005300410044004C00200043004D0044C1
:1067C00000280342004400410054002D00320058CC
:1067D000005500530042002F005300410044004C7C
:1067E0000020004800490044002A034200440041C0
:1067F0000054002000320058005500530042002F82
:106800000045005800540020004300410042004C65
:10681000004500260342004400410054002D003290
:106820000058005500530042002F00450058005406
:1068300000200043004D0044002603420044004174
:106840000054002D00320058005500530042002F24
:106850000045005800540020004800490044002A28
:106860000342004400410054002000540041004312
:10687000002D0052004F00560045005200200043FA
:1068800000410042004C0045002603420044004104
:106890000054002D005400410043002D0052004FD1
:1068A00000560045005200200043004D00440026E1
:1068B0000342004400410054002D005400410043B5
:1068C000002D0052004F00560045005200200048A5
:1068D00000490044002003420044004100540020CD
:1068E00000320035003900300020004300410042F2
:1068F000004C0045001C0342004400410054002DA0
:10690000003200350039003000200043004D0044C3
:10691000001C0342004400410054002D00320035A9
:1069200000390030002000480049004400DA62DAF3
:1069300062DA62FA64FA64FA64C963C963C96365B6
:10694000656965AF65CD65E76501661D6665656965
:1069500065376655666F668966A56665656965BF54
:1069600066DF66FB66176735675167656569656D44
:10697000679967C16765656965E96713683968651F
:106980006569655F688968AF6865656965D568F53B
:106990006811690600FF0901A101190129401501CB
:0F69A0002540750895408100190129409100C0DC
:1069B000A86A9C6A7C6AAB6ACF0E7D6EA8889C8EA2
:1069C0007C88A88AE4EF34F0D9CFE6FFE1CFD9FF85
:1069D000020EE1260B01006B016B046B056B086B6B
:1069E0000A6B2B6B2D6B2E6B2F6B306B436B446BD9
:1069F000476B496B4A6B4B6B4C6B4D6B4E6B4F6BE4
:106A0000506B516B526B536B546B556B566B486BA1
:106A1000576B586B596B5A6B5B6B5C6B316B326BA2
:106A2000336B346B010E356F3A0E366F0B0E376FCA
:106A3000000E386F040E396F3A6B3B6B3C6B3D6B4D
:106A4000010E3E6F310E3F6F0B0E406F000E416F17
:106A5000030E426FDE6ADD6AE5DAD890155004E66F
:106A6000040E145C000E155856E2070E086E096AF3
:106A7000DECF0DF0DDCF0EF0BFEC4DF006C027FBF2
:106A800007C028FB0B0E0B0127270B0E2823E7DA84
:106A9000F0DAEF6AC7DA060ED89014361536E80633
:106AA000FBE1000E1426020E152287DA050E14C033
:106AB000EBFF060E15C0EBFFD9CFE9FFDACFEAFFF7
:106AC000030EEE180AE1ED5008E177DA030EB2DAB0
:106AD0000B0EEE6E0B0EED6E19D0A4DA010E14261D
:106AE000000E1522070E1502F3CF15F01402F3CF96
:106AF00014F0F45015260B0E14260B0E15225DDA39
:106B0000030E14C0EBFF040E15C0EBFFDF2A010ECD
:106B1000A3E3DB2AA1D70B010B0E276F0B0E286F07
:106B20000B0E296F0B0E2A6FA3988A8657DA020E76
:106B3000E15C02E2E16AE552E16EE552E7CFD9FF9E
:106B4000120027EC3BF0F3CF14F0F4CF15F0F35024
:106B5000F41006E10B01000501E0F1D0E4EF34F0A0
:106B60000B01010E006F2D51030A01E196D0010ABD
:106B700073E0030A1FE0010A01E0ABD0350504E130
:106B8000310E436F0B0E06D03E0501E0A2D03A0E47
:106B9000436F0B0E446F43CBE9FFEA6EEE6AED6A7A
:106BA00052DA020EEB6A030EEB6A00DA020EEF6EA7
:106BB000010E2D6F19DA400EE66EFCD90451EE2459
:106BC000146E0551EE20156E14C0E6FFE66E4CEC17
:106BD00046F0E552E552E5520B01016FE85000081E
:106BE0001DE20151146E156A145055271550562395
:106BF0000151146E156ADED91450EE261550ED229F
:106C0000D9D9EE5002E1010EED1815E0400E015DFC
:106C100012E333EC4BF00B01476F5BD0CBD9D8803C
:106C2000EE54000EED5455E247CBE6FF3BEC4BF043
:106C3000E55208084EE2BAD9030EEF6E8BB003D0CE
:106C40000B012D6B46D00B01020E2D6F36EC4BF075
:106C5000F3CF2FFBF4CF30FB80BA0BD02FCBE6FF66
:106C6000D3D937E214508808130E155432E2F0D904
:106C700014D0BAD9E8D9CFD90B0104511424E96E44
:106C80000551BAD98B90592B5A23A39A9C9833EC6F
:106C90004BF00B012E6F030E2D6F80BA0DD043CB3E
:106CA00045FB44CB46FB82D9040EEF6E2D6B5B2B6C
:106CB000000E5C23A3880DD02ECBE6FFA5D909E2F8
:106CC00014509608000E155404E2C2D9572B000E3A
:106CD000582380B402D08A9602D080B48A860B01F1
:106CE0002B51010A1EE0010A28E167D9030EEE18B4
:106CF00024E1ED5022E161D9020EEB50E66E97D906
:106D0000EECFE6FFEFCFE6FF8BEC46F0E552E55223
:106D1000E55253D9040EEE6EED6A0B01010E2B6F96
:106D20000CD00601925109E19AD9030E83D9EECF16
:106D300027FBEDCF28FB0B012B6BD8EC46F01200A4
:106D40008050040B01E0010EE66EFE0EE66E700E42
:106D500039D98150040B01E0010EE66EF80EE66EA3
:106D6000700E30D98050200B01E0010EE66EF20E5D
:106D7000E66E700E27D98A50080B01E0010EE66E10
:106D8000EC0EE66E700E1ED98B50010BE66EE60E11
:106D9000E66E700E17D949CBE6FF4ACBE6FFDB0E55
:106DA000E66E700EEDD84BCBE6FF4CCBE6FFD00E77
:106DB000E66E700EE5D84DCBE6FF4ECBE6FFC50E76
:106DC000E66E700EDDD855CBE6FF56CBE6FFBA0E69
:106DD000E66E700ED5D853CBE6FF54CBE6FFAF0E70
:106DE000E66E700ECDD851CBE6FF52CBE6FFA40E77
:106DF000E66E700EC5D84FCBE6FF50CBE6FF990E7E
:106E0000E66E700EBDD857CBE6FF58CBE6FF8E0E70
:106E1000E66E700EB5D859CBE6FF5ACBE6FF830E6F
:106E2000E66E700EADD85BCBE6FF5CCBE6FF780E6E
:106E3000E66E700EC0EF37F0CCD8EECF14F0EFCF87
:106E400015F0C7D816D9EECF16F0EFCF17F01650C1
:106E5000141827E11750151824E107D9010EEF6E19
:106E6000B8D8E5D8EECF45FBEDCF46FBB2D8040E3F
:106E7000EB50030804E1F9D8040EEF6E12D0A3988A
:106E80000B01086BF2908150100B01E0010E486F6E
:106E9000F286C30ECF6EC40ECE6ECD80010E096F8A
:106EA000120080AA06D09AD8A398DFD8010EEF6E00
:106EB00012008FD8070EBED8EECF06FBEDCF07FB32
:106EC00088D8A9D80B0106511424E96E0751FCEFAC
:106ED00037F0CD909CA209D09C98AACF0AFB9C8841
:106EE0000B01492B000E4A2306D00B01512B000E3B
:106EF0005223AACF0AFBA2D8BCD8EF50EF2A146EB7
:106F0000156A9CD894D81450EE24E76E1550EE20E4
:106F1000EA6EE7CFE9FF0ACBEFFF90D8020EEB5005
:106F2000400801E135D0C30ECF6EC40ECE6ECD80C9
:106F3000096B12008150100B01E0010E0B01026F72
:106F4000036BF2904851146E156A1450021902E155
:106F5000155003190BE002CB48FB082B0F0E085D00
:106F600005E1CD90F296A8A2FED738D812009E90E7
:106F7000CD900B01095101E10BD0F296EEEF37F005
:106F8000E66E1BEC41F0E552E552E552E552120087
:106F900055D8030EEE6EED6A51D84CD8EECF29FBD2
:106FA000EDCF2AFB4BD865D8EF6A12004CD8040EFF
:106FB0001AEF38F048D839EF38F027CBE9FF28CB63
:106FC000EAFF1200E66E1EEC41F0E552E552E55292
:106FD000120045CBE9FF46CBEAFF12008B80AACF17
:106FE0002CFBA38A9C8812002ED8070E23D8EECF44
:106FF00004FBEDCF05FB12001520EA6EEF50A96EE1
:10700000532B000E542312003BEC4BF0E552146E50
:10701000156A15341200EECF14F0EDCF15F0EE2AFC
:10702000EF221200DECF14F0DDCF15F01200050EB6
:107030001AEF38F0E926000EEA22120029CBE9FF08
:107040002ACBEAFF120043CBE9FF44CBEAFF120050
:10705000C5DFACDF010EEF6E0B012D6B1200ADDF53
:10706000010EEE6EED6ADDEF37F0B3DF040E1AEFBE
:0870700038F0020E1AEF38F0AF
:08707800637473206C6F773A1A
:10708000202000727473206C6F773A2020006374A4
:107090007374696D656F3A200073656E7475736201
:1070A0003A202000727820696E3A20202020007457
:1070B00078206F75743A20202000726563766475BD
:1070C00073623A2000686F6C646F6666733A2000E2
:1070D0006672616D696E67733A20006F76657272D1
:1070E000756E733A20005254533A20004454523A79
:1070F00020004354533A20004453523A2000444362
:10710000443A200044617461204572726F720053EA
:107110006574204465627567204F757470757400DE
:107120004E6F204465627567204F757470757400EA
:1071300050726F6700427566660044617461205347
:10714000657420746F3A200053657420746F204278
:107150007566662E0053657420746F2050726F67D9
:107160002E00436D64204572726F72212053657446
:1071700020746F2030210053656E6420427974655D
:107180002044656661756C742053746174652100D8
:107190005264427974652044656661756C7420534D
:1071A0007461746521002C2052643A2000526420DE
:1071B000436D643A200057724279746520446566D5
:1071C00061756C74205374617465210057723A20A4
:1071D00000577220436D643A20004E65772052615B
:1071E00064696F3A20004E6F20526164696F2E000F
:1071F00020415454454E20537563636573730059A1
:107200002D4361626C6520486561646572203A2097
:1072100000576564676520486561646572203A209F
:1072200000486561646572203220536563205469AB
:107230006D656F7574004361626C652048656164BB
:107240006572204572723A20307800592D43616290
:107250006C652048656164657220466F756E6400D8
:1072600057656467652048656164657220466F757F
:107270006E640053656E6420415454454E2E0048A0
:1072800061766520526164696F3A20004572726FC1
:10729000722C2044656661756C742053746174654A
:1072A0002120205374617274206F7665722E005213
:1072B00058205765646765204572726F72210052CD
:1072C0006573746172742E00525820592D436162A7
:1072D0006C65204572726F7221004E6F2057656495
:1072E00067652E0052657374617274205365617214
:1072F000636820666F722057656467652E00536D62
:10730000617274204361626C6520466F756E642003
:10731000616E6420526561647900436865636B2027
:10732000417474656E000D0A3E3E200020003A2034
:107330000049647820307800204361626C650D0A52
:1073400000556E6B6E6F776E0032353930005441E8
:10735000432D524F56455200555342455854005202
:10736000543139323200313137470031343800314D
:1073700035320030362F31332F31342030393A3026
:1073800030002C200041706578204361626C6520DC
:107390005665722E20322E32322C204275696C6472
:1073A0003A20000D0A005258443A20005458443AFA
:1073B00020005258435F41313A20005258435F4207
:1073C000343A20005458433A20005254533A200093
:1073D0004454523A20004354533A20004453523A02
:1073E00020004443443A20000D0A5265672045724C
:1073F000722E004275636B2020476F6F643A200045
:10740000427950617373202053743A20003956201A
:107410005265672020456E3A2000427950617373AF
:107420002020456E3A2000566F6C74202020332EA9
:10743000333A20307800566F6C742020204F7574DA
:107440003A20307800566F6C7420202020496E3A24
:1074500020307800526420533A20002C20443A20F7
:10746000005264204D3A20004C4320004C42200042
:107470004C4120004443200044422000444120006D
:10748000504320005042200050412000457869744C
:1074900020446562756700426174746572792045A5
:1074A00078697400456E7465722044656275670082
:1074B00042617474657279204D6F646500202020EC
:1074C00043484743204C696D6974483A20002020A6
:1074D0002043484743204C696D69744C3A20002092
:1074E000202052534F43204C696D69743A2020008C
:1074F00020202054454D5042204C696D69743A203B
:107500000020202054454D5054204C696D69743A38
:107510002000202020566F6C74204C696D69743AED
:107520002020002020204E65766572206F6E00526C
:107530006567756C61746F72204F464600526567CF
:10754000756C61746F72204F4E000D0A4E6F2053A0
:107550004D425553000D0A56616C696420534D42EB
:10756000555300414C524D20200043564F4C202093
:107570000043435552202000534F434820200043EE
:10758000555252202000564F4C5420200054454D57
:10759000504220002C004D4F4445202000444349D8
:1075A0004E20200054454D5054200043484743206E
:1075B00020003A203078003A20000D0A00200052C6
:1075C00065672030780054696D656F7574204932A5
:0A75D0004320534D42555321210082
:0675DA0028DA39DAE8AE00
:1075E00002D0E73402D0E750815D2AE36550020BF8
:1075F00027E10801925122E1080EE66ED60EE66EF2
:10760000060EE66E37EC48F0E552E552E552DF6EC5
:10761000DF5014E0010EDB6ADF50F36E010EDBCFAA
:10762000F4FFF350F45C0AE20ADA05E008DAE66EE9
:107630009CEC40F0E552010EDB2AEED7C3EC48F09B
:10764000020EE15C02E2E16AE552E16EF4D1200E45
:107650000A01E76E8119E8AE02D0E73402D0E750A4
:10766000815D03E36550020B02E0F36A02D0010E74
:10767000F36EF46A1200DAD9020EE126DE6ADD6AE0
:107680000701E151E12BDF6EFF0EE15D0FE1E251F9
:1076900002E1010E08D0E20502E1020E04D0020E62
:1076A000E25D03E1030EE26F01D0E26B010EE2C77F
:1076B000DBFFDECF14F0DDCF15F014C0F3FF15C0F3
:1076C000F4FF020EE15C02E2E16AE552E16EB3D141
:1076D000ADD9BED9E8AE02D0E73402D0E750815D23
:1076E00001E279D06550020B76E10701E951EA1118
:1076F00002E1000E08D0E9C7E9FFEAC7EAFFEF5050
:10770000800B01E0010E000966E101018051CC0A05
:107710003CE04D0A23E0C10A18E0170A09E0530AC9
:1077200059E180C1C0F1020EC16F160EC26F14D0B4
:10773000C4EC4FF0F3CFF8F6F4CFF9F680C1C0F106
:10774000F3CFC1F1F4CFC2F138D099EC30F080C161
:10775000C0F10101C16BC26BC36B2FD00701EB51AC
:10776000EC1102E1000E03D07AD901E0010E00090C
:1077700031E10101810EC06F0601110EF66FF76F46
:10778000E8CFC1F1E8CFC2F118D00701EB51EC11FD
:1077900002E1000E03D063D901E0010E00091AE1F5
:1077A0006ADFF3CFDEFFF4CFDDFF0101CC0EC06F47
:1077B000DFCFC1F1010EDBCFC2F1400EE66EC00E8D
:1077C000E66E010EE66E010EE66E50D9F3CFEBF7D2
:1077D000F4CFECF71DD9020EE15C02E2E16AE5525A
:1077E000E16E29D123D96550020B01E0010EE66E4E
:1077F000FD0EDBCFE9FFFE0EDBCFEAFFE552E750DF
:10780000EF6EFB0EDBCFE9FFFC0EDBCFEAFF81CA98
:10781000EFFF11D10BD9040EE126D880000E07012D
:107820008755C20E8855010E8955000E8A553DE3D5
:1078300087C780F788C781F789C782F78AC783F728
:10784000C00E186EC60E196E2D0E1A6E1B6A18C069
:1078500006F019C007F0086E1BC009F080C70BF0D6
:1078600081C70CF082C70DF083C70EF0EDEC4FF02E
:1078700006C014F007C015F008C016F009C017F0D4
:107880001406000E155A165A175A14C0DFFF010EBF
:1078900015C0DBFF020E16C0DBFF030E17C0DBFFB7
:1078A000DF50B06E010EDB507F6E040EE15C02E231
:1078B000E16AE552E16EBFD0D880000E0E01875517
:1078C000C20E8855010E8955000E8A5501E212003C
:1078D00087CE80FE88CE81FE89CE82FE8ACE83FE50
:1078E00012001200120012007FEC4EF0A9EC47F0DB
:1078F000EAEC4FF0180A07E0080A05E0300A01E058
:107900001200BEEC43F0BCEC41F0BDEF45F01200BC
:107910001E0EE66E010EE66E0AEC22F0E552E5520E
:1079200077D8F8EC47F0EAEC4FF0180A07E0080ABD
:1079300005E0300A01E0120020EC44F01CEC42F0BB
:107940000DEF46F00A01C8051EE10A01C9051BE159
:10795000C9DF65920A01C96B0601100EFE6F0E0E9B
:10796000FF6FFE07000EFF5BFE51FF11FAE1658419
:10797000080EFE6F070EFF6FFE07000EFF5BFE5145
:10798000FF11FAE16594120051D8FD0EDBCF08F02B
:10799000FE0EDBCF09F0050E081801E1095034E0B6
:1079A000E868081802E17F0E09182DE0030E081898
:1079B00001E1095026E0020E081801E109501FE01C
:1079C000010E081801E1095018E0740E081801E1D1
:1079D000095011E0750E081801E109500AE0730E14
:1079E000081801E1095010E0720E08180DE1095065
:1079F0000BD077DF09D076DF07D08ADF05D087DFAD
:107A000003D072DF01D06FDF010EF36EF46A13D082
:107A1000400EE66E800EE66E010EE66EE66A010E20
:107A200025D8F3CFE9F7F4CFEAF71200D9CFE6FF74
:107A3000E1CFD9FF1200E552E7CFD9FF1200010EC6
:107A4000DB50EA6AD60FE96E060EEA22EF5012000A
:107A5000020EE126200E0A01E76E81191200EBC723
:107A6000E9FFECC7EAFFEF50800B1200E66E2EEC48
:0C7A700022F0146E050EE15E14501200AE
:047A7C000DDADF6AD6
:107A8000050EDF5C0DE2DF50D5D936DAFDD934DAE8
