:020000040000FA
:060000006DEF09F0120093
:020006000000F8
:0600080004EF10F01200ED
:080018000CEF10F03BEF0AF0C1
:020020001200CC
:0E0022000A01A36BB669B7691E6BA66BA76BCC
:10003000000EA65D020EA7590BE2000EA625E96E82
:10004000080EA721EA6EEF68A62B000EA723F0D7B3
:1000500012009CEC05F0020EE1260A01AC6BAD6BC0
:10006000AE6BAF6BA86BA96BAA6BAB6BDE6ADD6A7C
:1000700097EC06F0FB0EDBCF10F0FC0EDBCF11F09F
:100080000F501118E8AE02D0113402D074EC06F013
:100090002BE241EC06F0DE5010240E6EDD501120F4
:1000A0000F6E0EC0E6FFE66E9CEC06F004C0ACFAE4
:1000B00005C0ADFA06C0AEFA07C0AFFAAC0EE96EE5
:1000C0000A0EEA6E0A01A851EE18A86FA951EE189F
:1000D000A96FAA51EE18AA6FAB51EE18AB6F040EC0
:1000E000DE26000EDD22C4D7A8CA04F0A9CA05F096
:1000F000AACA06F0ABCA07F0020EE15C02E2E16AAE
:10010000E552E16EA1EF05F09CEC05F0030E81ECE9
:1001100005F0EFCF10FA020E81EC05F0EFCF11FAE7
:10012000010E81EC05F0EFCF12FA85EC06F0EFCF6F
:1001300013FA10CA04F011CA05F012CA06F013CA65
:1001400007F0A1EF05F09CEC05F0010E81EC05F045
:10015000EFCF14FA85EC06F0EFCF15FA14CAF3FFCF
:1001600015CAF4FFA1EF05F09CEC05F0040EE126A2
:10017000DE6ADD6A020EDB6A030EDB6A48EC06F01B
:10018000000E0E26010E0F22106A1034010E1018F8
:1001900002E639EC06F002E2000E33D04FEC06F036
:1001A000020E06C0DBFF030E07C0DBFFDE6ADD6A5E
:1001B00097EC06F0D8900F5004E6000E0E5C010E8E
:1001C0000F581EE2020EDBCFF6FF030EDBCFF7FF68
:1001D0000800F550E66E56EC06F0DE500E24E96E8F
:1001E000DD500F20EA6EE552E750EF6EDF2A010E78
:1001F00001E3DB2A020EDB2A030EDAE3DB2AD8D77F
:10020000010E0E6E040EE15C02E2E16AE552E16E5F
:100210000E50A1EF05F09CEC05F0090EE126DF6A17
:10022000010EDB6ADEEC05F0060EDB6A070EDB6A08
:10023000080EDB6A0A01A35127E10D0108BFACD10A
:10024000400EE66E230EE66E0A0EE66E40EC0BF0F4
:10025000E552E552E5520A01010EA36FDB6A020E78
:10026000DB6AE7EC05F004E6400E0E5C000E0F586A
:1002700001E392D1F0EC05F0630EE9260A0E2EECB4
:1002800006F0EFE3DB2AEDD72351570A01E173D1E2
:10029000010A01E158D10C0A01E14ED1190A01E12C
:1002A00044D1010A01E1ECD0030A01E1D7D0010AEF
:1002B00001E1D4D0040A45E0440A01E16DD1370AD6
:1002C0002FE0320A23E0010A01E065D123CA63FA74
:1002D000170E34EC06F0F550FF0806E0160E34EC6D
:1002E00006F0F550FF0804E1200E646F656F0AD038
:1002F000170E34EC06F0F5CF64FA160E34EC06F067
:10030000F5CF65FA0D010CBF47D143D123CA63FA7B
:10031000200E646F100E656F0D010CBF3DD139D1F9
:1003200023CA63FA010E646F020E656F550E666F85
:10033000660E676F770E686F696B0D010CBF2CD16D
:1003400028D1B9EC05F025EC06F02A0EE66E0A0E6F
:10035000E66E05EC06F00A01166B176B186B196B4D
:10036000000E045D200E0559000E0659000E0759B7
:1003700009E20CCA08FA0DCA09FA0ECA0AFA0FCA2B
:100380000BFA56D004CA0EF005CA0FF006CA10F0D8
:1003900007CA11F00F2A000E1022112239EC06F0C4
:1003A000000E115440E3000EE66E070EE66E04CA1E
:1003B000E6FF05CAE6FFD8DE8CEC06F0010830E166
:1003C0000A01000EB05D010EB15918E2010EB0CA6B
:1003D000DBFF020EB1CADBFFE7EC05F004E6000E1E
:1003E0000E5C010E0F580AE2F0EC05F0000EE92653
:1003F000070E2EEC06F0F0E3DB2AEED779EC06F0E0
:10040000000EE66E070EA1DB08E1EE500D1905E1C6
:10041000EE500E1902E1EE500F190AE0800E04D0E2
:100420000A01080E01D0400E166F176B186B196B7E
:1004300023CA63FA19CA64FA18CA65FA17CA66FAAF
:1004400016CA67FA0BCA68FA0ACA69FA09CA6AFAC6
:1004500008CA6BFA0D010CBF9FD09BD0166B176BAF
:10046000010E186F196B23CA63FA19CA64FA656F13
:1004700017CA66FA16CA67FA0D010CBF8DD089D06B
:1004800023CA63FA76DBC1DB2C0EE66E0A0EE66E3B
:10049000DCDB0A01340EF35C000EF45817E20C0E9C
:1004A0000F6AB0250E6EB1510F225DEC06F08FDBA6
:1004B00004E6400E0E5C000E0F5808E291DB230E9E
:1004C000E9260A0ECBDBF3E3DB2AF1D779EC06F061
:1004D0002F0EE66E0A0E39DB22E1EE500D191FE1F8
:1004E000EE500E191CE1EE500F1919E118E1100E33
:1004F000166F79EC06F02F0EE66E0A0EE66E04CA51
:10050000E6FF05CAE6FF06CAE6FF07CAE6FF4BD8C4
:100510000E6E080EE15E0E500A01166B02D0800EC0
:10052000166FD2DB0CBF38D034D0166B23CA63FAF7
:10053000CBDB0CBF31D02DD023CA63FA0D010CAF39
:1005400056DB93D929D0240EE66E0A0EE66EFBDD4B
:10055000E552E552F3CFA6FAF4CFA7FAF3CFE6FFC0
:10056000F4CFE6FF69DAE552E55223CA63FA0D01DA
:100570000CBF12D00ED0A9DAF3CF14FAF4CF15FACB
:1005800023CA63FAF3CF64FAF4CF65FA0D010CBF06
:1005900003D02DDB01D0A36B090EE15C02E2E16A1E
:1005A000E552E16ECED2C8DA060EE126DE6ADD6AD9
:1005B00005DBA4DB000EEE5C200EEE58000EEE58BC
:1005C000000EEE5801E2C8D0A3DA85DBFB0EDBCFCC
:1005D00016F0FC0EDBCF17F0FD0EFE0E010E171607
:1005E000186A196A8BDB1650EE5C126E1750EE58C3
:1005F000136E1850EE58146E1950EE58156ECBDA73
:1006000018DBDE6ADD6A0BDBE8AE02D0113401D004
:100610006BDB31E2F90EDBCF12F0FA0EDBCF13F019
:10062000DE501224E96EDD501320EA6EEF50E66EC4
:10063000C1DA0FAE02D01068116874DA000E0E2411
:10064000E96E080E0F20EA6EE552E750EF6EB2DA5F
:100650000FAE02D01068116865DA000E0E5C020E53
:100660000F58000E1058000E115805E2DF2A010E37
:10067000CAE3DB2AC8D7D3DAE8AE02D0113401D0FE
:1006800033DB6AE297DA0FAE02D010681168020E0F
:10069000D0DAFB0EDBCF12F0FC0EDBCF13F0FD0E39
:1006A000FE0E010E1316146A156A75DA0F26000E77
:1006B000102211220EC0E6FF0FC0E6FF10C0E6FFB9
:1006C00011C0E6FF08DBDE6ADD6A74DA0FAE02D025
:1006D00010681168F70EDBCF16F0F80EDBCF17F0BD
:1006E000186A196A17AE02D0186819681ADBEE503A
:1006F000165C126EEE501758136EEE501858146EAA
:10070000EE501958156E12500E5C13500F581450BD
:1007100010581550115820E24DDA0FAE02D0106873
:10072000116800DAF90EDB500E24E96EFA0EDB5088
:100730000F20EA6EEF50E66EDECFE9FFDDCFEAFF75
:10074000000EE926080EEA22E552E750EF6EDF2A96
:10075000010EBBE3DB2AB9D7060EE15C02E2E16AD7
:10076000E552E16EEED1E8D9020EE126DE6ADD6ADD
:100770000A01B61D01E1B71D0EE0CAD9AFDAF3CF09
:100780000EF0F4CF0FF0F3500A01B61902E10F504A
:10079000B71901E022D80A01B61D08E1B71D06E12C
:1007A000B7D99CDAF3CFB6FAF4CFB7FA020EE15C10
:1007B00002E2E16AE552E16EC4D1BED977DA61DACC
:1007C000090ED890113210320F320E32E806F9E1DC
:1007D0000EC0F3FF0FC0F4FFB4D10A01B61D01E152
:1007E000B71D42E0B6CAB2FAB7CAB3FA0A01B46B8F
:1007F000B56B090E0A01D890B237B337B437B537A5
:10080000E806F9E1B6CAE6FFB7CAE6FF57D8E552EF
:10081000E5520A01A66BA76B0A01FF0EA65D1F0E2B
:10082000A75906E200000A01A62B000EA723F4D761
:10083000B9D80A01A66BA76B0A01000EA65D020ECD
:10084000A7590EE2000E0A01A625E96E080E0A015C
:10085000A721EA6EEF680A01A62B000EA723ECD7AA
:100860000A01B669B7690400120004D8FF0000004D
:10087000000012000A01B869B9690A01B8CA0EF08D
:10088000B9CA0FF0B807000EB95B0E500F1004E0A4
:100890006592656A46D8F1D71200D9CFE6FFE1CF5D
:1008A000D9FFF29E550EA76EAA0EA76EA682A6B21B
:1008B000FED7A694E552E7CFD9FF12003DD9E65204
:1008C000FD0EDB50010B2BE1020E0E6E0F6AE7D915
:1008D0000EC00BF00FC00CF0A7EC0CF0FD0E06C024
:1008E000DBFFFE0E07C0DBFFF850DF6ED1D9106AC8
:1008F0000A0E1F0B0EC0F6FF0FC0F7FF10C0F8FF67
:1009000006E0D890F636F736F836E806FAE1140E27
:10091000A66EB50EE66EC1DFE552DF50F86EE55209
:1009200010D104001200D9CFE6FFE1CFD9FFE65283
:10093000F850DF6E0A01216BFD0EDBCF1AFAFE0EB6
:10094000DBCF1BFA400E0A01215D1DE222CAF8FF2F
:100950001BCAF7FF1ACAF6FF0A012151E76EFB0E08
:10096000DBCFE9FFFC0EDBCFEAFFE750E926000E04
:10097000EA22EF50F56E0C000A01212B0A011A2B16
:10098000000E1B23DFD7A698A684550EA76EAA0ECD
:10099000A76EA682A694DF50F86EE552E552E7CF27
:1009A000D9FF1200C9D8060EE126B2CADEFFB3CACB
:1009B000DDFF04D9040EDBCF0EF0050EDBCF0FF008
:1009C000080E0E5C000E0F5830E2000E0A01B25DF8
:1009D000000EB359010EB459000EB55903E3010ED0
:1009E000226F01D0226B020EDBCF0EF0030EDBCFA5
:1009F0000FF0000E0E26080E0F220EC0E6FF0FC0ED
:100A0000E6FFDECFE6FFDDCFE6FF6BD9400EDE2648
:100A1000000EDD2286D9400EEE26000EED22040ED9
:100A2000DB2A050EC7E3DB2AC5D7060EE15C02E22E
:100A3000E16AE552E16E85D07FD8050EE126D950F6
:100A4000FD0F0E6EFF0EDA200F6E37D9DF6A400EF3
:100A5000DF5C09E2DF50EA6A000FE96E080EEA2265
:100A6000EF68DF2AF4D7010EE76EDBCFE9FF020E55
:100A7000DBCFEAFFE750E926000EEA22EFCF00F8CD
:100A8000AFD8EFCF01F8FC0EE66EE66A17DFE5524D
:100A9000E552030EDB6AF80EF36E040EF3CFDBFFB4
:100AA0000A01010E226F000EE66E080EE66E030EBE
:100AB000DBCFE6FF040EDBCFE6FF13D9050EE15CCA
:100AC00002E2E16AE552E16E3CD036D8E6520A0114
:100AD0001C6BF80E1D6FF850DF6E010EF86E1CCA0D
:100AE000F6FF1DCAF7FF0900F5CFA6FA0A00F5CFF9
:100AF000A7FADF50F86EA6CAF3FFA7CAF4FFE552C3
:100B000020D0E76E02D9E750E926000EEA22120053
:100B1000F5D8EECFE6FFEECFE6FFEECFE6FFEFCF64
:100B2000E6FF1200FED8EE500E26EE500F22EE50D9
:100B30001022EE5011221200D9CFE6FFE1CFD9FFEB
:100B40001200E552E7CFD9FF1200E66E29EC00F063
:100B5000E3D804C008FA05C009FA06C00AFA07C0BB
:100B60000BFA080EE96E0A0EEA6EEE500A010C1935
:100B70001200240EE66E0A0EE66EDED804C004FAF9
:100B800005C005FA06C006FA07C007FA280EE66E89
:100B90000A0EE66E1200B2D81250EE5C0E6E1350C2
:100BA000EE580F6E1450EE58106E1550EE58116E30
:100BB000020E1200BCD8106A116A1200020EDB6A23
:100BC000030EDB6A040EDB6A050EDB6A1200010EFF
:100BD000DBCF0EF0020EDBCF0FF0D8900F501200DB
:100BE000010EDBCFE9FF020EDBCFEAFF1200400E61
:100BF000E66E630EE66E0A0EE66E10EC0BF0E55242
:100C0000E552E5520A01A36B120096D804C00CFA13
:100C100005C00DFA06C00EFA07C00FFA120087D8F9
:100C2000F70EDBCF10F0F80EDBCF11F00F501118DC
:100C300012000EC0DBFF030E0FC0DBFF040E10C05E
:100C4000DBFF050E11C0DBFF1200A3EC00F0E55244
:100C5000E552F3CFB0FAF4CFB1FA1200EA22EF6A0C
:100C6000010EDB2A020E1200F66E200EF76E08004F
:100C70001200D880FF0E0E54FF0E0F54010E1054B8
:100C80001200FD0EDBCF10F0FE0EDBCF11F01200D4
:100C9000FD0EDBCF0EF0FE0EDBCF0FF01200FD0ECF
:100CA000DBCF06F0FE0EDBCF07F01200FB0EDBCF32
:100CB0000EF0FC0EDBCF0FF01200010E0EC0DBFFBA
:100CC000020E0FC0DBFF1200646B656B666B16CA09
:100CD00067FA0D01120047DD8CEF06F06EDD8CEF38
:100CE00006F021DE8CEF06F010500E5C11500F580C
:100CF0001200B0CAE6FFB1CAE6FF1200D950FB0FDE
:100D0000E96EFF0EDA20EA6E1200FD0EDBCFE9FF7E
:100D1000FE0EDBCFEAFF1200E552E552E552E55246
:100D20001200D950020FE96EDACFEAFF1200DECFCF
:100D30000EF0DDCF0FF0120084EC00F0E552E5522A
:020D400012009F
:0E0D42007DD9E652645032E162960D010051F7
:100D50003C0BE842E8420D0828E1180E021923E195
:100D60000D0E031920E1100E026F0D0E036FDF6AE6
:100D7000DF500E6E0F6A080E0E5C000E0F5813E265
:100D8000DF50EA6A180FE96E0D0EEA22EF50E66EA8
:100D9000DF50EA6A100FE96E0D0EEA22E552E750C5
:100DA000EF6EDF2AE5D70ED80AD03FD808D0040E60
:100DB000645C03E1629650D802D0000E01D0010EAF
:100DC000E55242D13CD9E6520D0104BF046B0A0141
:100DD000E26BDA6BDB6BE06BE16B30EC08F0DF6A47
:100DE000DF500E6E0F6A010E0E5C000E0F581AE2F5
:100DF0000A01DB5117E1F76ADF34FE0BF736F66EB6
:100E00004C0EF626190EF7220900F5CF0EF0080059
:100E1000F5CF0FF004D00FC0FAFF0E50F96EFBDFD4
:100E2000DF2ADED7B7D8E5520FD1020E0A01DA5D0C
:100E30000EE184D80D01180E026F0D0E036F080E1F
:100E4000016F00BD02D0C80E05D0880E03D0DBD8DC
:100E5000E7D88C0E006F1200040E0A01E35D0CE16E
:100E600012CD38FF0F013851000803E20A01050EC8
:100E700002D00A01030EE36F0A01DA0510E111D86E
:100E8000020E0A01E25D03E10D01840E06D00D01A0
:100E900004BD02D0C80E01D0880E046F120003EF0B
:100EA00008F0CDD8020EE1260A01080EE05D000E22
:100EB000E1590DE2E0CADEFFE1CADDFFE25102E1E5
:100EC000010E03D0E20506E1020EE26F03D0080E28
:100ED000DE6EDD6A0D0104930491010EDB500413F4
:100EE000DFCF05FD000EDB500A01E05F010EDB5095
:100EF000E15B180EDE6F0D0EDF6F0A01E4A30CD06C
:100F000097D815E0DCCAF6FFDDCAF7FF0800F550F8
:100F10007FD8F6E2DB06F4D78BD809E0DCCAE9FF1C
:100F2000DDCAEAFFEF5074D8F7E2DB06F5D7020E10
:100F3000E15C02E2E16AE552E16E86D080D8020E01
:100F4000E126030E0D010015E76E010EE7CFDBFF72
:100F500001CDDFFFDE500A01E027DD50E123180E4E
:100F6000DC6F0D0EDD6F64D80EE0DCCAE9FFDDCA70
:100F7000EAFFEF50DECAE9FFDFCAEAFFEF6E68D88A
:100F8000F2E2DB06F0D7020EE15C02E2E16AE55232
:100F9000E16E5AD065980A01DB5105E141D8840E13
:100FA000006F0D011DD00D0110AF1CD00A01E051E2
:100FB0000D01165D0A01E1510D01175904E216CD2C
:100FC000E0FA17CDE1FA6DDF0A01010EDA6F28D8D9
:100FD000800E006F0D01180E066F0D0E076FC80E04
:100FE000046F12000A01020EDA6F0D01056BC80EC4
:100FF000046F0D01080E016F180E026F0D0E036FC6
:10100000C80E006F12000A01DA6B0D01046B1200AA
:10101000DECAE9FFDFCAEAFFEF6E0A0128EF08F037
:101020000D01080E016F100E026F0D0E036F1200FE
:10103000D9CFE9FFDACFEAFFEE50ED101200D9CF99
:10104000E6FFE1CFD9FF1200E552E7CFD9FF12004A
:10105000DE2B000EDF23DC2BDD23DF06010E12006A
:101060000D011051600BE842E842E842E842E842D4
:10107000000901E012001151070A40E00B0A3EE0AE
:10108000070A33E0010A23E00B0A1FE0020A1DE011
:10109000030A19E0080A10E0010A0CE00F0A08E050
:1010A000030A01E0120011D90A01040EE36F1200D5
:1010B0007FEF08F0B6EF08F008D90A01E50EDC6F03
:1010C0000A0EDD6F0CD0D7EF08F009EF09F001D957
:1010D0000A01DC6FDD6BE60EDC270A0EDD230A0158
:1010E000E4930A01010EE06F1200F3D8EA6AE60FFA
:1010F000E96E0A0EEA2212CDEFFF12001200800EF6
:101100000D01105D32E11351030A1FE0010A0AE0EC
:10111000030A29E1DAD80A019E0EDC6F180EDD6F92
:10112000120E1ED0B8D8420EF626190EC6D8020EE0
:101130000A01F76ADC25F66EDD51F7220900F5CFCA
:10114000E0FA0A00F5CFE1FA0ED0A5D8460EF62651
:10115000190EB3D8DCCAF6FFDDCAF7FF0800F55058
:101160000A01E06FE16B0A01E4831200AED80F01BF
:10117000276B286B296B2A6B2B6B2C6B2D6BE66E08
:10118000E60EE66E0A0EE66E3AEC0CF0E552E5521B
:10119000E55212CDE5FA0D01125104E10A01050EE6
:1011A000E36F12000A01060EE36FFAEF0AF00D0179
:1011B000186B196B0D0110511F0B020A0FE0030A87
:1011C0000BE0010A18E181D80D0118810A01E4A1A0
:1011D00012D00D0118830FD078D80DD050D801E06F
:1011E000010E62D8DECAE9FFEA6EEF50040B03E09D
:1011F0000D01010E186F0A01DB050AE10A01180E44
:10120000DC6F0D0EDD6F0A01E4930A01020EE06F40
:1012100012000D0112050EE110511F0B00090AE129
:1012200054D8030E0D01115D03E10A01E48102D0DF
:101230000A01E4910D01125121E110511F0B020826
:101240001DE114510F0B000919E019D801E0010E3E
:101250002BD8030E0D01115D02E1840E03D014AFF3
:1012600007D0400EDECAE9FFDFCAEAFFEF6E1200C8
:10127000880EDECAE9FFDFCAEAFFEF6E120029D846
:101280000F0B080DF3500F6A000F0E6E0D0E0F229C
:101290001451800B120019D80D011251F66EF76A25
:1012A000D890F636F7361200040DF3500A010E24DA
:1012B000DE6F000E0F20DF6F1200F7220900F5CF5E
:1012C000DCFA0A00F5CFDDFA12000A01010EDB6F2D
:0A12D0001200FBDF0D0114511200A3
:0612DA00EF0E0E01AE193B
:1012E00002E1BE0EAF190FE01C0EF66E200EF76E77
:1012F0000900F5CF0EF00800F5CF0FF0120E0E1812
:1013000001E10F5006E00E01AE6BAF6B3BEF0AF050
:10131000B1D00A01140EC56F200EC66FC5CAF6FF04
:10132000C6CAF7FF0900F5CFC9FA0A00F5CFCAFA15
:101330000A01100EC76F200EC86FC7CAF6FFC8CAD1
:10134000F7FF0900F5CFD6FA0900F5CFD7FA090063
:10135000F5CFD8FA0800F5CFD9FA000E0A01D65D0C
:10136000D80ED759010ED859000ED95902E33BEFD8
:101370000AF00A01C36B200EC46F0A01CE6B200E67
:10138000CF6FD06BD16B0A01CB6BCC6B0A01BF6BFB
:10139000C06BC16BC26BBF0EE96E0A0EEA6E0A012A
:1013A000D651EE5C0A01D751EE580A01D851EE58D9
:1013B0000A01D951EE584FE2100E0A01CE5D200EFF
:1013C000CF59000ED059000ED1590BE3D880150E1D
:1013D0000A01CE55200ECF55000ED055000ED15526
:1013E00029E2000E0A01CE5D000ECF59010ED05940
:1013F000000ED1590EE3F8CFBCFA010EF86EC3CA45
:10140000F6FFC4CAF7FF0800F5CFCDFABCCAF8FF53
:1014100007D0C3CAF6FFC4CAF7FF0800F5CFCDFA5C
:101420000A01CD510E6E0F6A0E500A01CB270F50E4
:101430000A01CC230A01C32B000EC4230A01CE2BC0
:10144000000ECF23D023D1230A01BF2B000EC023CF
:10145000C123C223A0D70A01C9510A01CB1904E153
:101460000A01CA510A01CC1903E100EF10F002D0C1
:101470003BEF0AF01200F26A1CEE00F02CEE00F0D6
:10148000F86AFC6A65A602D03AEC04F011D80400B0
:1014900085EC0BF09CEC0BF043D8060E0A01E35DE3
:1014A00005E16550020B02E10BEC01F0F0D71200F0
:1014B000D9CFE6FFE1CFD9FF020EE12685B806D0ED
:1014C0001A0E856E600E85146008FCE1580EDE6E03
:1014D000020EDD6E9B8CDFCF0EF0DF06010EDBCF40
:1014E0000FF001E2DB060E500F10F5E10F01486925
:1014F0001F0E496F140E396F0A01E36B0A01E46B8A
:101500000A01E56B11EC00F08A9A939A020EE15CF5
:1015100002E2E16AE552E16EE552E7CFD9FF12003F
:021520001200B7
:0E1522000D0110511F0B010801E012001451C1
:1015300001E01200060E115D24E11351230A1FE0A1
:10154000010A0DE0030A1BE1DCD80A01E50505E10B
:101550000A01C20EDC6F180EDD6F090E0DD0D1D856
:101560000A01E50505E10A01250EDC6F190EDD6FA4
:101570000A01E50504E11D0E0A01E06FE16B0A01B5
:10158000E4830D011051600BE842E842E842E84272
:10159000E842010801E0120011510B0A25E0080A97
:1015A00017E0090A11E0080A09E00B0A05E0080A39
:1015B00001E01200F8EF0AF0F9EF0AF0A2D80A01F0
:1015C000EB0EDC6F0A0E09D09CD813CDEBFA12009B
:1015D00098D80A01EC0EDC6F0A0EDD6F0A01E49365
:1015E0000A01010EE06F12008CD812CDECFA120045
:1015F000120012000A01ED6B0F011E0E276F0D0184
:10160000400E096F200E0A6F0D0E0B6F880E086FCB
:101610000D01600E0E6F0D0E0F6F400E0C6F12005D
:10162000D9CFE6FFE1CFD9FFE652FC0EDB504008F0
:1016300005E2400EF36EFC0EF3CFDBFFDF6AFC0E1B
:10164000DB50DF5C0FE2DF5050D8EF50E66EDF502A
:10165000EA6A600FE96E0D0EEA22E552E750EF6E7E
:10166000DF2AEDD7FC0EDBCF0DFD400E0D010C1770
:101670000C7D880E0C13E552E552E7CFD9FF12001E
:10168000D9CFE6FFE1CFD9FF0A01ED6B0D0108BF0D
:1016900026D0FC0EDBCF0EF00951D8800E5403E2A9
:1016A000FC0E09CDDBFF0A01ED6BFC0EDB50ED5D9E
:1016B0000FE2ED51EA6A200FE96E0D0EEA22EF50BB
:1016C000E66EED5112D8E552E750EF6EED2BEDD7F7
:1016D0000D01400E096F0817087D880E08130A01D6
:1016E000ED51E552E7CFD9FF1200E76EFD0EDBCFDB
:1016F000E9FFFE0EDBCFEAFFE750E926000EEA2203
:0A17000012000A01020EDB6F120056
:06170A0065B607D0656A18
:101710000F01366B65860A01010EE36F0A01E305CE
:101720000AE165BA08D0626A0F01366B36813689E4
:101730000A01020EE36F12000A01E35101E11200F7
:1017400062B453D865B2120062B069D862B817D8D3
:1017500062BA53D8030E0A01E35D01E212000A01E6
:10176000E76B040EE75D0AE262A608D0A1EC06F082
:10177000000901E162960A01E72BF3D7120036CF88
:10178000EAFA0F01040E366F62986582A198A0886C
:10179000A150100B12E1D050080B0FE10A01E86BC9
:1017A000E96B0A01E80EE85D030EE95905E20A015A
:1017B000E82B000EE923F5D7EBD7A0980A01EA51F0
:1017C0000F0136130A01D50EE86F020EE96F0A0108
:1017D000E8CA0EF0E9CA0FF0E807000EE95B0E5008
:1017E0000F1002E00400F3D7120065920F01369546
:1017F00062A402D06294FCD712000F0126A10DD082
:10180000800E0D01005D07E1840E0D01045D03E112
:101810000D018C0E006F0F012691629A1200636A0F
:10182000626A0F019F0E376F7B0E366F386B276B26
:10183000286B296B2A6B2B6B2C6B2D6B160E266F6E
:1018400062A604D0629691EC04F0FAD7659803EC96
:1018500008F00D01080E016F100E026F0D0E036FE0
:101860008C0E006F0A01E4910A01E56B0A01030E78
:10187000E36F1200D9CFE6FFE1CFD9FFFD0EDBCF3A
:10188000E9FFFE0EDBCFEAFFFC0EDB5004E0EE6A60
:0E189000FC0EDB06F9D7E552E7CFD9FF1200B8
:02189E00120135
:1018A000000200000008542A0004010101020001A6
:1018B00009022900010100C03209040000020300EE
:1018C0000000092111010001221D000705810340CC
:1018D000000107050103400001040309041E03423F
:1018E000006C00610063006B00200044006900612F
:1018F000006D006F006E0064002E002A034100504E
:1019000000450078004300610062006C0065002D16
:101910000042006F006F0074006C006F0061006493
:1019200000650072000600FF0901A10119012940AC
:10193000150026FF00750895408100190129409186
:0E19400000C0B018B018D918DD18FB18221519
:02194E00036A2A
:10195000026A100EE76ED890063607360236033656
:101960000B50025C0C50035805E30B50025E0C5008
:0A197000035A062AE72EF0D71200F2
:06197A00B00EF36E00EE5A
:1019800000F00E0E01D81200EA6002D0EE6AFCD719
:0A199000F350E9601200EE6AFCD784
:020000040001F9
:01FFF800A860
:01FFF900F710
:01FFFA000DF9
:01FFFB00FF06
:01FFFC0061A3
:01FFFD00F90A
:01FFFE008181
:01FFFF00F908
:00000001FF
